{
  "abi": [
    {
      "inputs": [
        {
          "internalType": "address",
          "name": "_uniFactory",
          "type": "address"
        },
        {
          "internalType": "address",
          "name": "wethtAddress",
          "type": "address"
        },
        {
          "internalType": "address",
          "name": "_uniRouter",
          "type": "address"
        }
      ],
      "stateMutability": "nonpayable",
      "type": "constructor"
    },
    {
      "anonymous": false,
      "inputs": [
        {
          "indexed": true,
          "internalType": "address",
          "name": "token0",
          "type": "address"
        },
        {
          "indexed": true,
          "internalType": "address",
          "name": "token1",
          "type": "address"
        },
        {
          "indexed": false,
          "internalType": "address",
          "name": "pair",
          "type": "address"
        },
        {
          "indexed": false,
          "internalType": "address",
          "name": "pool",
          "type": "address"
        },
        {
          "indexed": false,
          "internalType": "address",
          "name": "oracle",
          "type": "address"
        },
        {
          "indexed": false,
          "internalType": "uint256",
          "name": "",
          "type": "uint256"
        }
      ],
      "name": "PoolCreated",
      "type": "event"
    },
    {
      "inputs": [],
      "name": "WETH",
      "outputs": [
        {
          "internalType": "address",
          "name": "",
          "type": "address"
        }
      ],
      "stateMutability": "view",
      "type": "function"
    },
    {
      "inputs": [
        {
          "internalType": "uint256",
          "name": "",
          "type": "uint256"
        }
      ],
      "name": "allPools",
      "outputs": [
        {
          "internalType": "address",
          "name": "",
          "type": "address"
        }
      ],
      "stateMutability": "view",
      "type": "function"
    },
    {
      "inputs": [],
      "name": "allPoolsLength",
      "outputs": [
        {
          "internalType": "uint256",
          "name": "",
          "type": "uint256"
        }
      ],
      "stateMutability": "view",
      "type": "function"
    },
    {
      "inputs": [
        {
          "internalType": "address",
          "name": "tokenA",
          "type": "address"
        },
        {
          "internalType": "address",
          "name": "tokenB",
          "type": "address"
        },
        {
          "internalType": "address",
          "name": "oracle",
          "type": "address"
        }
      ],
      "name": "createPool",
      "outputs": [
        {
          "internalType": "address payable",
          "name": "pool",
          "type": "address"
        }
      ],
      "stateMutability": "nonpayable",
      "type": "function"
    },
    {
      "inputs": [
        {
          "internalType": "address",
          "name": "",
          "type": "address"
        }
      ],
      "name": "getPoolFromPair",
      "outputs": [
        {
          "internalType": "address",
          "name": "",
          "type": "address"
        }
      ],
      "stateMutability": "view",
      "type": "function"
    },
    {
      "inputs": [
        {
          "internalType": "address",
          "name": "",
          "type": "address"
        },
        {
          "internalType": "address",
          "name": "",
          "type": "address"
        }
      ],
      "name": "getPoolFromTokens",
      "outputs": [
        {
          "internalType": "address",
          "name": "",
          "type": "address"
        }
      ],
      "stateMutability": "view",
      "type": "function"
    },
    {
      "inputs": [],
      "name": "uniFactory",
      "outputs": [
        {
          "internalType": "address",
          "name": "",
          "type": "address"
        }
      ],
      "stateMutability": "view",
      "type": "function"
    },
    {
      "inputs": [],
      "name": "uniRouter",
      "outputs": [
        {
          "internalType": "address",
          "name": "",
          "type": "address"
        }
      ],
      "stateMutability": "view",
      "type": "function"
    }
  ],
  "address": "0x2785119540Ae98B43f7A502e74A8bEc304ca4423",
  "args": [
    "0x5788A105b3D1086452beeE97026FCC4085dCF401",
    "0xd04E7D0A32C21d9f9fEe7504161E946B30b7AD8A",
    "0xC6276cF9EBB4C7f134Be16379166E814eB82c876"
  ],
  "solcInputHash": "0x749a956613a7872662305430ba9de1cd8998a3e6a684af2c9a12be9dbdd198b9",
  "bytecode": "0x60e060405234801561001057600080fd5b506040516150193803806150198339818101604052606081101561003357600080fd5b50805160208201516040909201516001600160601b0319606092831b811660805292821b831660a052901b1660c05260805160601c60a05160601c60c05160601c614f6e6100ab6000398061052352806107015250806104d352806107255250806102a752806104fb52806106dd5250614f6e6000f3fe608060405234801561001057600080fd5b50600436106100885760003560e01c8063a0e47bf61161005b578063a0e47bf61461012c578063ad5c464814610134578063efde4e641461013c578063f3e7b4fd1461015657610088565b8063236aea2e1461008d57806341d1de97146100e15780634ce19cb0146100fe57806376771d4b14610124575b600080fd5b6100c5600480360360608110156100a357600080fd5b506001600160a01b038135811691602081013582169160409091013516610184565b604080516001600160a01b039092168252519081900360200190f35b6100c5600480360360208110156100f757600080fd5b5035610699565b6100c56004803603602081101561011457600080fd5b50356001600160a01b03166106c0565b6100c56106db565b6100c56106ff565b6100c5610723565b610144610747565b60408051918252519081900360200190f35b6100c56004803603604081101561016c57600080fd5b506001600160a01b038135811691602001351661074d565b6000826001600160a01b0316846001600160a01b031614156101ed576040805162461bcd60e51b815260206004820152601e60248201527f53544f50204c4f53533a204944454e544943414c5f4144445245535345530000604482015290519081900360640190fd5b6001600160a01b038416610248576040805162461bcd60e51b815260206004820152601e60248201527f53544f50204c4f53533a20544f4b454e3a205a45524f5f414444524553530000604482015290519081900360640190fd5b6001600160a01b0383166102a3576040805162461bcd60e51b815260206004820152601e60248201527f53544f50204c4f53533a20544f4b454e3a205a45524f5f414444524553530000604482015290519081900360640190fd5b60007f00000000000000000000000000000000000000000000000000000000000000006001600160a01b031663e6a4390586866040518363ffffffff1660e01b815260040180836001600160a01b03168152602001826001600160a01b031681526020019250505060206040518083038186803b15801561032357600080fd5b505afa158015610337573d6000803e3d6000fd5b505050506040513d602081101561034d57600080fd5b505190506001600160a01b0381166103ac576040805162461bcd60e51b815260206004820152601c60248201527f53544f50204c4f53533a20554e49504149525f4e4f545f455849535400000000604482015290519081900360640190fd5b6001600160a01b038181166000908152600160205260409020541615610419576040805162461bcd60e51b815260206004820152601660248201527f53544f50204c4f53533a20504f4f4c5f45584953545300000000000000000000604482015290519081900360640190fd5b60606040518060200161042b90610770565b6020820181038252601f19601f82011660405250905060008260405160200180826001600160a01b031660601b8152601401915050604051602081830303815290604052805190602001209050808251602084016000f5604080517f358764760000000000000000000000000000000000000000000000000000000081526001600160a01b0386811660048301528a81166024830152898116604483015288811660648301527f0000000000000000000000000000000000000000000000000000000000000000811660848301527f0000000000000000000000000000000000000000000000000000000000000000811660a48301527f0000000000000000000000000000000000000000000000000000000000000000811660c483015291519296509086169163358764769160e48082019260009290919082900301818387803b15801561057957600080fd5b505af115801561058d573d6000803e3d6000fd5b505050506001600160a01b038781166000818152602081815260408083208b861680855290835281842080548b88167fffffffffffffffffffffffff00000000000000000000000000000000000000009182168117909255858552838620878752855283862080548216831790558a881680875260018087528588208054841685179055600280549182018155978890527f405787fa12a823e0f2b7631cc41b3ba8828b3321ca811111fa75cd3aa3bb5ace01805490921681179091559454835195865293850152948a16838201526060830191909152517ffe834702cbdeb62c6d1bffbab6dd4e1b0f42e5d5f81e1d228e2b228734a6c8329181900360800190a35050509392505050565b600281815481106106a657fe5b6000918252602090912001546001600160a01b0316905081565b6001602052600090815260409020546001600160a01b031681565b7f000000000000000000000000000000000000000000000000000000000000000081565b7f000000000000000000000000000000000000000000000000000000000000000081565b7f000000000000000000000000000000000000000000000000000000000000000081565b60025490565b60006020818152928152604080822090935290815220546001600160a01b031681565b6147bb8061077e8339019056fe60a060405234801561001057600080fd5b5033606081901b60805261478561003660003980610ced528061100952506147856000f3fe6080604052600436106102375760003560e01c80638bdb2afa11610138578063b6add0f4116100b0578063d62c9e131161007f578063dd51700c11610064578063dd51700c146106c4578063f03ef2d0146106ee578063fff6cae91461062d5761023e565b8063d62c9e131461069a578063dc5fa6c5146106af5761023e565b8063b6add0f414610618578063bbd4c6c91461062d578063c5700a0214610642578063cb45bc92146106705761023e565b8063a0e47bf611610107578063ad5c4648116100ec578063ad5c4648146105d9578063b4d1d795146105ee578063b6353567146106035761023e565b8063a0e47bf614610585578063abd96b4e1461059a5761023e565b80638bdb2afa14610514578063948483a2146105295780639864229914610546578063989443271461055b5761023e565b80634219dc40116101cb5780635ffef9721161019a5780636aedea731161017f5780636aedea73146104ba5780636b960dcd146104cf5780637dc0d1d0146104ff5761023e565b80635ffef9721461047b57806367e368fc146104a55761023e565b80634219dc40146103fe57806359158d48146104135780635a806ac01461043d5780635f64b55b146104665761023e565b80632f91e0ff116102075780632f91e0ff1461031d57806332972e46146103325780633587647614610347578063405a506d146103ac5761023e565b8062f714ce146102435780630fc63d101461027e57806319e36f3b146102af5780631ca73afb146102d65761023e565b3661023e57005b600080fd5b34801561024f57600080fd5b5061027c6004803603604081101561026657600080fd5b50803590602001356001600160a01b0316610727565b005b34801561028a57600080fd5b506102936107ee565b604080516001600160a01b039092168252519081900360200190f35b3480156102bb57600080fd5b506102c46107fd565b60408051918252519081900360200190f35b3480156102e257600080fd5b5061027c600480360360808110156102f957600080fd5b508035906001600160a01b0360208201351690604081013590606001351515610803565b34801561032957600080fd5b506102c4610ccd565b34801561033e57600080fd5b50610293610cd3565b34801561035357600080fd5b5061027c600480360360e081101561036a57600080fd5b506001600160a01b038135811691602081013582169160408201358116916060810135821691608082013581169160a081013582169160c09091013516610ce2565b3480156103b857600080fd5b506103d6600480360360208110156103cf57600080fd5b5035610fcd565b604080516001600160a01b039094168452602084019290925282820152519081900360600190f35b34801561040a57600080fd5b50610293611007565b34801561041f57600080fd5b5061027c6004803603602081101561043657600080fd5b503561102b565b34801561044957600080fd5b5061045261173e565b604080519115158252519081900360200190f35b34801561047257600080fd5b5061029361174e565b34801561048757600080fd5b5061027c6004803603602081101561049e57600080fd5b503561175d565b3480156104b157600080fd5b50610452611dae565b3480156104c657600080fd5b506102c4611dbe565b3480156104db57600080fd5b5061027c600480360360408110156104f257600080fd5b5080359060200135611dc4565b34801561050b57600080fd5b506102936121f8565b34801561052057600080fd5b50610293612207565b61027c6004803603602081101561053f57600080fd5b5035612216565b34801561055257600080fd5b506102c46125a2565b34801561056757600080fd5b5061027c6004803603602081101561057e57600080fd5b5035612637565b34801561059157600080fd5b50610293612f28565b3480156105a657600080fd5b5061027c600480360360608110156105bd57600080fd5b508035906001600160a01b036020820135169060400135612f37565b3480156105e557600080fd5b50610293612f49565b3480156105fa57600080fd5b506102c4612f58565b34801561060f57600080fd5b506102c4612f5d565b34801561062457600080fd5b5061027c612f63565b34801561063957600080fd5b5061027c613021565b34801561064e57600080fd5b50610657613023565b6040805163ffffffff9092168252519081900360200190f35b34801561067c57600080fd5b506103d66004803603602081101561069357600080fd5b5035613036565b3480156106a657600080fd5b506102c4613043565b3480156106bb57600080fd5b506102c4613049565b3480156106d057600080fd5b5061027c600480360360208110156106e757600080fd5b503561304f565b3480156106fa57600080fd5b5061027c6004803603604081101561071157600080fd5b50803590602001356001600160a01b0316613933565b6003546001600160a01b0382811691161461079e576004546001600160a01b0382811691161461079e576040805162461bcd60e51b815260206004820152601360248201527f534c504f4f4c3a2057726f6e6720546f6b656e00000000000000000000000000604482015290519081900360640190fd5b600054600160a01b900460ff16156107e2576004546001600160a01b03828116911614156107d4576107cf8261102b565b6107dd565b6107dd8261175d565b6107ea565b6107ea613021565b5050565b6003546001600160a01b031681565b60085481565b6003546001906001600160a01b03858116911614610881576004546001600160a01b0385811691161461087d576040805162461bcd60e51b815260206004820152601360248201527f534c504f4f4c3a2057726f6e6720546f6b656e00000000000000000000000000604482015290519081900360640190fd5b5060005b8161092657600254604080517f23b872dd0000000000000000000000000000000000000000000000000000000081523360048201523060248201526044810188905290516001600160a01b03909216916323b872dd916064808201926020929091908290030181600087803b1580156108f957600080fd5b505af115801561090d573d6000803e3d6000fd5b505050506040513d602081101561092357600080fd5b50505b600061093f8661093986620f42406139e4565b90613a46565b905060008215610a1e57506040805160608101825233815260208101888152918101838152600d8054600181018255600082905292517fd7b6990105719101dabeb77144f2a3385c8033acd3af97e9423a695e81ad1eb56003909402938401805473ffffffffffffffffffffffffffffffffffffffff19166001600160a01b0390921691909117905592517fd7b6990105719101dabeb77144f2a3385c8033acd3af97e9423a695e81ad1eb6830155517fd7b6990105719101dabeb77144f2a3385c8033acd3af97e9423a695e81ad1eb7909101555460001901610aef565b506040805160608101825233815260208101888152918101838152600e8054600181018255600082905292517fbb7b4a454dc3493923482f07822329ed19e8244eff582cc204f8554c3620c3fd6003909402938401805473ffffffffffffffffffffffffffffffffffffffff19166001600160a01b0390921691909117905592517fbb7b4a454dc3493923482f07822329ed19e8244eff582cc204f8554c3620c3fe830155517fbb7b4a454dc3493923482f07822329ed19e8244eff582cc204f8554c3620c3ff9091015554600019015b600254604080516001600160a01b0392831681526020810184905233818301528615156060820152608081018a905291881660a083015260c08201849052517fbd67f2a626bf3c55eecadbe2b4b5001c02d081e867d49f3ac97e06a2e654b7329181900360e00190a1610b976040518060400160405280601f81526020017f3e3e3e4e65772053746f704c6f737320526567697374657265642066726f6d0081525033613a88565b6040805180820190915260078152663ab734a830b4b960c91b6020820152600254610bcb91906001600160a01b0316613a88565b610bf86040518060400160405280600b81526020016a37b93232b9273ab6b132b960a91b81525082613b58565b610c216040518060400160405280600781526020016637b93232b932b960c91b81525033613a88565b610c4b604051806040016040528060088152602001671b1c105b5bdd5b9d60c21b81525088613b58565b610c7d6040518060400160405280601081526020016f746f6b656e546f47756172616e74656560801b81525087613a88565b610cbc6040518060400160405280600581526020017f726174696f00000000000000000000000000000000000000000000000000000081525083613b58565b610cc4613c1f565b50505050505050565b600b5481565b6002546001600160a01b031681565b336001600160a01b037f00000000000000000000000000000000000000000000000000000000000000001614610d5f576040805162461bcd60e51b815260206004820152601160248201527f534c506f6f6c3a20464f5242494444454e000000000000000000000000000000604482015290519081900360640190fd5b600280546001600160a01b03808a1673ffffffffffffffffffffffffffffffffffffffff19928316179092556001805485841690831617905560008054868416908316179055600c805492841692909116919091179055610dc086866140e4565b6004805473ffffffffffffffffffffffffffffffffffffffff199081166001600160a01b03938416179091556003805482169383169390931790925560058054909216908616179055610e11612f63565b600254600c546040805163095ea7b360e01b81526001600160a01b0392831660048201526c7e37be2022c0914b268000000060248201529051919092169163095ea7b39160448083019260209291908290030181600087803b158015610e7657600080fd5b505af1158015610e8a573d6000803e3d6000fd5b505050506040513d6020811015610ea057600080fd5b5050600354600c546040805163095ea7b360e01b81526001600160a01b0392831660048201526c7e37be2022c0914b268000000060248201529051919092169163095ea7b39160448083019260209291908290030181600087803b158015610f0757600080fd5b505af1158015610f1b573d6000803e3d6000fd5b505050506040513d6020811015610f3157600080fd5b505060048054600c546040805163095ea7b360e01b81526001600160a01b03928316948101949094526c7e37be2022c0914b268000000060248501525191169163095ea7b39160448083019260209291908290030181600087803b158015610f9857600080fd5b505af1158015610fac573d6000803e3d6000fd5b505050506040513d6020811015610fc257600080fd5b505050505050505050565b600d8181548110610fda57fe5b60009182526020909120600390910201805460018201546002909201546001600160a01b03909116925083565b7f000000000000000000000000000000000000000000000000000000000000000081565b336001600160a01b0316600e828154811061104257fe5b60009182526020909120600390910201546001600160a01b0316146110ae576040805162461bcd60e51b815260206004820152601d60248201527f534c504f4f4c3a2053454e4445525f4e4f545f415554484f52495a4544000000604482015290519081900360640190fd5b600c54600454600e805460009384936001600160a01b03918216936302751cec939290911691879081106110de57fe5b90600052602060002090600302016001015460008030643d09b8a35f6040518763ffffffff1660e01b815260040180876001600160a01b03168152602001868152602001858152602001848152602001836001600160a01b0316815260200182815260200196505050505050506040805180830381600087803b15801561116457600080fd5b505af1158015611178573d6000803e3d6000fd5b505050506040513d604081101561118e57600080fd5b5080516020918201516040805160028082526060808301845294975092955092938301908036833750506000805483519394506001600160a01b0316928492506111d457fe5b6001600160a01b0392831660209182029290920101526004548251911690829060019081106111ff57fe5b6001600160a01b039290921660209283029190910190910152604080516002808252606082810190935281602001602082028036833701905050600c546040517f7ff36ab50000000000000000000000000000000000000000000000000000000081526000600482018181523060448401819052643d09b8a35f606485018190526080602486019081528951608487015289519798506001600160a01b0390961696637ff36ab5968b968b959260a490910190602080880191028083838b5b838110156112d65781810151838201526020016112be565b50505050905001955050505050506000604051808303818588803b1580156112fd57600080fd5b505af1158015611311573d6000803e3d6000fd5b50505050506040513d6000823e601f3d908101601f19168201604052602081101561133b57600080fd5b810190808051604051939291908464010000000082111561135b57600080fd5b90830190602082018581111561137057600080fd5b825186602082028301116401000000008211171561138d57600080fd5b82525081516020918201928201910280838360005b838110156113ba5781810151838201526020016113a2565b505050509050016040525050509050600460009054906101000a90046001600160a01b03166001600160a01b031663a9059cbb3361141587856001815181106113ff57fe5b602002602001015161419c90919063ffffffff16565b6040518363ffffffff1660e01b815260040180836001600160a01b0316815260200182815260200192505050602060405180830381600087803b15801561145b57600080fd5b505af115801561146f573d6000803e3d6000fd5b505050506040513d602081101561148557600080fd5b5050600254600e80547faa21aa8cc0cd88a1d2690c7f73b3b1cd3037104d7dd94f82c766ba4fe941952a926001600160a01b0316918891339190839081106114c957fe5b906000526020600020906003020160010154600460009054906101000a90046001600160a01b0316866001815181106114fe57fe5b602002602001015160405180876001600160a01b03168152602001868152602001856001600160a01b03168152602001848152602001836001600160a01b03168152602001828152602001965050505050505060405180910390a16115976040518060400160405280600f81526020017f3e3e3e4e657720576974686472617700000000000000000000000000000000008152506141f6565b6040805180820190915260078152663ab734a830b4b960c91b60208201526002546115cb91906001600160a01b0316613a88565b6115f86040518060400160405280600b81526020016a37b93232b9273ab6b132b960a91b81525086613b58565b6116216040518060400160405280600781526020016637b93232b932b960c91b81525033613a88565b611669604051806040016040528060088152602001671b1c105b5bdd5b9d60c21b815250600e878154811061165257fe5b906000526020600020906003020160010154613b58565b60408051808201909152601081526f746f6b656e546f47756172616e74656560801b60208201526004546116a691906001600160a01b0316613a88565b6116f56040518060400160405280600d81526020017f746f6b656e5769746864726177000000000000000000000000000000000000008152506116f086846001815181106113ff57fe5b613b58565b600e858154811061170257fe5b600091825260208220600390910201805473ffffffffffffffffffffffffffffffffffffffff1916815560018101829055600201555050505050565b600054600160a01b900460ff1681565b6004546001600160a01b031681565b336001600160a01b0316600d828154811061177457fe5b60009182526020909120600390910201546001600160a01b0316146117e0576040805162461bcd60e51b815260206004820152601d60248201527f534c504f4f4c3a2053454e4445525f4e4f545f415554484f52495a4544000000604482015290519081900360640190fd5b600c54600454600d805460009384936001600160a01b03918216936302751cec9392909116918790811061181057fe5b90600052602060002090600302016001015460008030643d09b8a35f6040518763ffffffff1660e01b815260040180876001600160a01b03168152602001868152602001858152602001848152602001836001600160a01b0316815260200182815260200196505050505050506040805180830381600087803b15801561189657600080fd5b505af11580156118aa573d6000803e3d6000fd5b505050506040513d60408110156118c057600080fd5b50805160209182015160408051600280825260608083018452949750929550929383019080368337505060045482519293506001600160a01b03169183915060009061190857fe5b6001600160a01b03928316602091820292909201015260005482519116908290600190811061193357fe5b6001600160a01b039290921660209283029190910190910152604080516002808252606082810190935281602001602082028036833701905050600c546040517f18cbafe5000000000000000000000000000000000000000000000000000000008152600481018781526000602483018190523060648401819052643d09b8a35f6084850181905260a060448601908152895160a487015289519798506001600160a01b03909616966318cbafe5968c9694958b95909260c490910190602080880191028083838b5b83811015611a145781810151838201526020016119fc565b505050509050019650505050505050600060405180830381600087803b158015611a3d57600080fd5b505af1158015611a51573d6000803e3d6000fd5b505050506040513d6000823e601f3d908101601f191682016040526020811015611a7a57600080fd5b8101908080516040519392919084640100000000821115611a9a57600080fd5b908301906020820185811115611aaf57600080fd5b8251866020820283011164010000000082111715611acc57600080fd5b82525081516020918201928201910280838360005b83811015611af9578181015183820152602001611ae1565b505050509050016040525050509050336001600160a01b03166108fc611b2685846001815181106113ff57fe5b6040518115909202916000818181858888f19350505050158015611b4e573d6000803e3d6000fd5b50600254600d80547faa21aa8cc0cd88a1d2690c7f73b3b1cd3037104d7dd94f82c766ba4fe941952a926001600160a01b031691889133919083908110611b9157fe5b906000526020600020906003020160010154600360009054906101000a90046001600160a01b031686600181518110611bc657fe5b602002602001015160405180876001600160a01b03168152602001868152602001856001600160a01b03168152602001848152602001836001600160a01b03168152602001828152602001965050505050505060405180910390a1611c5f6040518060400160405280600f81526020017f3e3e3e4e657720576974686472617700000000000000000000000000000000008152506141f6565b6040805180820190915260078152663ab734a830b4b960c91b6020820152600254611c9391906001600160a01b0316613a88565b611cc06040518060400160405280600b81526020016a37b93232b9273ab6b132b960a91b81525086613b58565b611ce96040518060400160405280600781526020016637b93232b932b960c91b81525033613a88565b611d1a604051806040016040528060088152602001671b1c105b5bdd5b9d60c21b815250600d878154811061165257fe5b60408051808201909152601081526f746f6b656e546f47756172616e74656560801b6020820152600354611d5791906001600160a01b0316613a88565b611da16040518060400160405280600d81526020017f746f6b656e5769746864726177000000000000000000000000000000000000008152506116f085846001815181106113ff57fe5b600d858154811061170257fe5b600454600160a01b900460ff1681565b60095481565b6040805160028082526060808301845292602083019080368337505060045482519293506001600160a01b031691839150600090611dfe57fe5b6001600160a01b039283166020918202929092010152600054825191169082906001908110611e2957fe5b6001600160a01b0392909216602092830291909101909101526040805160028082526060828101909352816020016020820280368337505060048054604080517f23b872dd000000000000000000000000000000000000000000000000000000008152339381019390935230602484015260448301899052519394506001600160a01b0316926323b872dd925060648083019260209291908290030181600087803b158015611ed757600080fd5b505af1158015611eeb573d6000803e3d6000fd5b505050506040513d6020811015611f0157600080fd5b5050600c546001600160a01b03166318cbafe5611f1f866002613a46565b60008530643d09b8a35f6040518663ffffffff1660e01b81526004018086815260200185815260200180602001846001600160a01b03168152602001838152602001828103825285818151815260200191508051906020019060200280838360005b83811015611f99578181015183820152602001611f81565b505050509050019650505050505050600060405180830381600087803b158015611fc257600080fd5b505af1158015611fd6573d6000803e3d6000fd5b505050506040513d6000823e601f3d908101601f191682016040526020811015611fff57600080fd5b810190808051604051939291908464010000000082111561201f57600080fd5b90830190602082018581111561203457600080fd5b825186602082028301116401000000008211171561205157600080fd5b82525081516020918201928201910280838360005b8381101561207e578181015183820152602001612066565b5050505090500160405250505090506000600c60009054906101000a90046001600160a01b03166001600160a01b031663f305d719836001815181106120c057fe5b6020026020010151600460009054906101000a90046001600160a01b0316856000815181106120eb57fe5b602002602001015160008030643d09b8a35f6040518863ffffffff1660e01b815260040180876001600160a01b03168152602001868152602001858152602001848152602001836001600160a01b0316815260200182815260200196505050505050506060604051808303818588803b15801561216757600080fd5b505af115801561217b573d6000803e3d6000fd5b50505050506040513d606081101561219257600080fd5b506040908101518151808301909252600982527f4c5020546f6b656e730000000000000000000000000000000000000000000000602083015291506121d79082613b58565b6004546121f19082906001600160a01b0316866001610803565b5050505050565b6005546001600160a01b031681565b6001546001600160a01b031681565b604080516002808252606080830184529260208301908036833750506000805483519394506001600160a01b03169284925061224e57fe5b6001600160a01b03928316602091820292909201015260045482519116908290600190811061227957fe5b6001600160a01b03929092166020928302919091019091015260408051600280825260608281019093528160200160208202803683375050600c54919250506001600160a01b0316637ff36ab56122d1346002613a46565b60008530643d09b8a35f6040518663ffffffff1660e01b81526004018085815260200180602001846001600160a01b03168152602001838152602001828103825285818151815260200191508051906020019060200280838360005b8381101561234557818101518382015260200161232d565b50505050905001955050505050506000604051808303818588803b15801561236c57600080fd5b505af1158015612380573d6000803e3d6000fd5b50505050506040513d6000823e601f3d908101601f1916820160405260208110156123aa57600080fd5b81019080805160405193929190846401000000008211156123ca57600080fd5b9083019060208201858111156123df57600080fd5b82518660208202830111640100000000821117156123fc57600080fd5b82525081516020918201928201910280838360005b83811015612429578181015183820152602001612411565b5050505090500160405250505090506000600c60009054906101000a90046001600160a01b03166001600160a01b031663f305d7198360008151811061246b57fe5b6020026020010151600460009054906101000a90046001600160a01b03168560018151811061249657fe5b602002602001015160008030643d09b8a35f6040518863ffffffff1660e01b815260040180876001600160a01b03168152602001868152602001858152602001848152602001836001600160a01b0316815260200182815260200196505050505050506060604051808303818588803b15801561251257600080fd5b505af1158015612526573d6000803e3d6000fd5b50505050506040513d606081101561253d57600080fd5b506040908101518151808301909252600982527f4c5020546f6b656e730000000000000000000000000000000000000000000000602083015291506125829082613b58565b60035461259c9082906001600160a01b0316866001610803565b50505050565b600254604080517f70a0823100000000000000000000000000000000000000000000000000000000815230600482015290516000926001600160a01b0316916370a08231916024808301926020929190829003018186803b15801561260657600080fd5b505afa15801561261a573d6000803e3d6000fd5b505050506040513d602081101561263057600080fd5b5051905090565b612677606461093961264a82600561419c565b600e858154811061265757fe5b9060005260206000209060030201600201546139e490919063ffffffff16565b600b54106126cc576040805162461bcd60e51b815260206004820152601760248201527f534c504f4f4c3a20524154494f5f434f4e444954494f4e000000000000000000604482015290519081900360640190fd5b600c54600454600e805460009384936001600160a01b03918216936302751cec939290911691879081106126fc57fe5b90600052602060002090600302016001015460008030643d09b8a35f6040518763ffffffff1660e01b815260040180876001600160a01b03168152602001868152602001858152602001848152602001836001600160a01b0316815260200182815260200196505050505050506040805180830381600087803b15801561278257600080fd5b505af1158015612796573d6000803e3d6000fd5b505050506040513d60408110156127ac57600080fd5b508051602090910151600e805492945090925060009161281991620f4240916109399190889081106127da57fe5b906000526020600020906003020160020154600e88815481106127f957fe5b9060005260206000209060030201600101546139e490919063ffffffff16565b60408051600280825260608083018452939450909160208301908036833750506000805483519394506001600160a01b03169284925061285557fe5b6001600160a01b03928316602091820292909201015260045482519116908290600190811061288057fe5b6001600160a01b0392909216602092830291909101909101526040805160018082528183019092526060918160200160208202803683375050600c54919250506001600160a01b031663fb3bdb41856128d986896142b8565b8530643d09b8a35f6040518663ffffffff1660e01b81526004018085815260200180602001846001600160a01b03168152602001838152602001828103825285818151815260200191508051906020019060200280838360005b8381101561294b578181015183820152602001612933565b50505050905001955050505050506000604051808303818588803b15801561297257600080fd5b505af1158015612986573d6000803e3d6000fd5b50505050506040513d6000823e601f3d908101601f1916820160405260208110156129b057600080fd5b81019080805160405193929190846401000000008211156129d057600080fd5b9083019060208201858111156129e557600080fd5b8251866020820283011164010000000082111715612a0257600080fd5b82525081516020918201928201910280838360005b83811015612a2f578181015183820152602001612a17565b505050509050016040525050509050600460009054906101000a90046001600160a01b03166001600160a01b031663a9059cbb600e8881548110612a6f57fe5b60009182526020808320600390920290910154604080517fffffffff0000000000000000000000000000000000000000000000000000000060e087901b1681526001600160a01b039092166004830152602482018990525160448083019491928390030190829087803b158015612ae557600080fd5b505af1158015612af9573d6000803e3d6000fd5b505050506040513d6020811015612b0f57600080fd5b5050805133906108fc908390600090612b2457fe5b602002602001015186039081150290604051600060405180830381858888f19350505050158015612b59573d6000803e3d6000fd5b50600254600e80547fffa335879a58d6e36033d19edf38a91429a790b15c4ea556e6ab539494202793926001600160a01b031691899182908110612b9957fe5b906000526020600020906003020160000160009054906101000a90046001600160a01b031633600e8b81548110612bcc57fe5b600091825260208220600391820201600101546004549154895191936001600160a01b03938416938d939216918b9190612c0257fe5b602090810291909101810151604080516001600160a01b039b8c16815292830199909952968916818901529488166060860152608085019390935290861660a084015260c083015290931660e0840152870361010083015251908190036101200190a1612ca36040518060400160405280601981526020017f3e3e3e4e65772053746f704c6f737320457865637574696f6e000000000000008152506141f6565b6040805180820190915260078152663ab734a830b4b960c91b6020820152600254612cd791906001600160a01b0316613a88565b612d046040518060400160405280600b81526020016a37b93232b9273ab6b132b960a91b81525087613b58565b612d536040518060400160405280600781526020016637b93232b932b960c91b815250600e8881548110612d3457fe5b60009182526020909120600390910201546001600160a01b0316613a88565b612d926040518060400160405280600a81526020017f6c697175696461746f720000000000000000000000000000000000000000000081525033613a88565b612dc3604051806040016040528060088152602001671b1c105b5bdd5b9d60c21b815250600e888154811061165257fe5b60408051808201909152601081526f746f6b656e546f47756172616e74656560801b6020820152600454612e0091906001600160a01b0316613a88565b612e3f6040518060400160405280601681526020017f746f6b656e2057697468647261776e20616d6f756e740000000000000000000081525084613b58565b60408051808201909152601181527f746f6b656e546f4c697175696461746f720000000000000000000000000000006020820152600354612e8991906001600160a01b0316613a88565b612ede6040518060400160405280600c81526020017f657468657220746f204c6971000000000000000000000000000000000000000081525082600081518110612ecf57fe5b60200260200101518603613b58565b600e8681548110612eeb57fe5b600091825260208220600390910201805473ffffffffffffffffffffffffffffffffffffffff191681556001810182905560020155505050505050565b600c546001600160a01b031681565b612f448383836000610803565b505050565b6000546001600160a01b031681565b600181565b60065481565b600560009054906101000a90046001600160a01b03166001600160a01b031663c5700a026040518163ffffffff1660e01b815260040160206040518083038186803b158015612fb157600080fd5b505afa158015612fc5573d6000803e3d6000fd5b505050506040513d6020811015612fdb57600080fd5b50516005805463ffffffff909216600160a01b027fffffffffffffffff00000000ffffffffffffffffffffffffffffffffffffffff909216919091179055613021613c1f565b565b600554600160a01b900463ffffffff1681565b600e8181548110610fda57fe5b600a5481565b60075481565b6130906040518060400160405280601c81526020017f2d2d5f6578656375746553746f704c6f737345746820726174696f4100000000815250600a54613b58565b6040805180820190915260208082527f2d2d5f6578656375746553746f704c6f737345746820726174696f2063616c63908201526130e8906116f060646109396130db82600561419c565b600d878154811061265757fe5b61310860646109396130fb82600561419c565b600d858154811061265757fe5b600a541061315d576040805162461bcd60e51b815260206004820152601760248201527f534c504f4f4c3a20524154494f5f434f4e444954494f4e000000000000000000604482015290519081900360640190fd5b600c54600454600d805460009384936001600160a01b03918216936302751cec9392909116918790811061318d57fe5b90600052602060002090600302016001015460008030643d09b8a35f6040518763ffffffff1660e01b815260040180876001600160a01b03168152602001868152602001858152602001848152602001836001600160a01b0316815260200182815260200196505050505050506040805180830381600087803b15801561321357600080fd5b505af1158015613227573d6000803e3d6000fd5b505050506040513d604081101561323d57600080fd5b508051602090910151600d805492945090925060009161328a91620f42409161093991908890811061326b57fe5b906000526020600020906003020160020154600d88815481106127f957fe5b604080516002808252606080830184529394509091602083019080368337505060045482519293506001600160a01b0316918391506000906132c857fe5b6001600160a01b0392831660209182029290920101526000548251911690829060019081106132f357fe5b6001600160a01b0392909216602092830291909101909101526040805160018082528183019092526060918160200160208202803683375050600c54919250506001600160a01b0316634a25d94a61334b85876142b8565b878530643d09b8a35f6040518663ffffffff1660e01b81526004018086815260200185815260200180602001846001600160a01b03168152602001838152602001828103825285818151815260200191508051906020019060200280838360005b838110156133c45781810151838201526020016133ac565b505050509050019650505050505050600060405180830381600087803b1580156133ed57600080fd5b505af1158015613401573d6000803e3d6000fd5b505050506040513d6000823e601f3d908101601f19168201604052602081101561342a57600080fd5b810190808051604051939291908464010000000082111561344a57600080fd5b90830190602082018581111561345f57600080fd5b825186602082028301116401000000008211171561347c57600080fd5b82525081516020918201928201910280838360005b838110156134a9578181015183820152602001613491565b505050509050016040525050509050600d86815481106134c557fe5b600091825260208220600390910201546040516001600160a01b039091169185156108fc02918691818181858888f1935050505015801561350a573d6000803e3d6000fd5b5060045481516001600160a01b039091169063a9059cbb903390849060009061352f57fe5b602002602001015188036040518363ffffffff1660e01b815260040180836001600160a01b0316815260200182815260200192505050602060405180830381600087803b15801561357f57600080fd5b505af1158015613593573d6000803e3d6000fd5b505050506040513d60208110156135a957600080fd5b5050600254600d80547fffa335879a58d6e36033d19edf38a91429a790b15c4ea556e6ab539494202793926001600160a01b0316918991829081106135ea57fe5b906000526020600020906003020160000160009054906101000a90046001600160a01b031633600d8b8154811061361d57fe5b906000526020600020906003020160010154600360009054906101000a90046001600160a01b031689600460009054906101000a90046001600160a01b03168960008151811061366957fe5b602090810291909101810151604080516001600160a01b039b8c16815292830199909952968916818901529488166060860152608085019390935290861660a084015260c083015290931660e0840152880361010083015251908190036101200190a161370a6040518060400160405280601981526020017f3e3e3e4e65772053746f704c6f737320457865637574696f6e000000000000008152506141f6565b6040805180820190915260078152663ab734a830b4b960c91b602082015260025461373e91906001600160a01b0316613a88565b61376b6040518060400160405280600b81526020016a37b93232b9273ab6b132b960a91b81525087613b58565b61379b6040518060400160405280600781526020016637b93232b932b960c91b815250600d8881548110612d3457fe5b6137da6040518060400160405280600a81526020017f6c697175696461746f720000000000000000000000000000000000000000000081525033613a88565b61380b604051806040016040528060088152602001671b1c105b5bdd5b9d60c21b815250600d888154811061165257fe5b60408051808201909152601081526f746f6b656e546f47756172616e74656560801b602082015260035461384891906001600160a01b0316613a88565b6138876040518060400160405280600e81526020017f657468657220576974686472617700000000000000000000000000000000000081525084613b58565b60408051808201909152601181527f746f6b656e546f4c697175696461746f7200000000000000000000000000000060208201526004546138d191906001600160a01b0316613a88565b6139266040518060400160405280601281526020017f746f6b656e416d6f756e7420746f204c697100000000000000000000000000008152508260008151811061391757fe5b60200260200101518703613b58565b600d8681548110612eeb57fe5b6003546001600160a01b038281169116146139aa576004546001600160a01b038281169116146139aa576040805162461bcd60e51b815260206004820152601360248201527f534c504f4f4c3a2057726f6e6720546f6b656e00000000000000000000000000604482015290519081900360640190fd5b600054600160a01b900460ff16156107e2576004546001600160a01b03828116911614156139db576107cf82612637565b6107dd8261304f565b6000826139f357506000613a40565b82820282848281613a0057fe5b0414613a3d5760405162461bcd60e51b815260040180806020018281038252602181526020018061472f6021913960400191505060405180910390fd5b90505b92915050565b6000613a3d83836040518060400160405280601a81526020017f536166654d6174683a206469766973696f6e206279207a65726f0000000000008152506142fa565b6107ea82826040516024018080602001836001600160a01b03168152602001828103825284818151815260200191508051906020019080838360005b83811015613adc578181015183820152602001613ac4565b50505050905090810190601f168015613b095780820380516001836020036101000a031916815260200191505b5060408051601f198184030181529190526020810180516001600160e01b03167f319af33300000000000000000000000000000000000000000000000000000000179052935061439c92505050565b6107ea82826040516024018080602001838152602001828103825284818151815260200191508051906020019080838360005b83811015613ba3578181015183820152602001613b8b565b50505050905090810190601f168015613bd05780820380516001836020036101000a031916815260200191505b5060408051601f198184030181529190526020810180516001600160e01b03167f9710a9d000000000000000000000000000000000000000000000000000000000179052935061439c92505050565b600254600090613c37906001600160a01b03166143bd565b60055490935063ffffffff600160a01b90910481168403925060019083161090506107ea57600560009054906101000a90046001600160a01b03166001600160a01b031663a2e620456040518163ffffffff1660e01b8152600401600060405180830381600087803b158015613cac57600080fd5b505af1158015613cc0573d6000803e3d6000fd5b5050600580547fffffffffffffffff00000000ffffffffffffffffffffffffffffffffffffffff16600160a01b63ffffffff8716021790819055600354604080517f3ddac9530000000000000000000000000000000000000000000000000000000081526001600160a01b039283166004820152670de0b6b3a764000060248201529051919092169350633ddac95392506044808301926020929190829003018186803b158015613d7057600080fd5b505afa158015613d84573d6000803e3d6000fd5b505050506040513d6020811015613d9a57600080fd5b5051600655600254604080517f0902f1ac000000000000000000000000000000000000000000000000000000008152905160009283926001600160a01b0390911691630902f1ac91600480820192606092909190829003018186803b158015613e0257600080fd5b505afa158015613e16573d6000803e3d6000fd5b505050506040513d6060811015613e2c57600080fd5b5080516020909101516004546dffffffffffffffffffffffffffff928316945091169150600160a01b900460ff16613e65578181613e68565b80825b600855600755600254604080517f18160ddd00000000000000000000000000000000000000000000000000000000815290516001600160a01b03909216916318160ddd91600480820192602092909190829003018186803b158015613ecc57600080fd5b505afa158015613ee0573d6000803e3d6000fd5b505050506040513d6020811015613ef657600080fd5b5051600955600654600090613f2d90613f2490613f1b90670de0b6b3a7640000613a46565b600754906139e4565b6008549061419c565b90506000613f58613f51670de0b6b3a7640000600654613a4690919063ffffffff16565b8390613a46565b600954909150613f6f9061093983620f42406139e4565b600a55600954613f869061093984620f42406139e4565b600b819055600654600a5460408051428152602081019390935282810191909152606082019290925290517fce49b138f2621300a7043a61f472ccfd643162bdf3efb11354e22d5273b77a719181900360800190a16140196040518060400160405280600d81526020017f3e3e3e4e657720757064617465000000000000000000000000000000000000008152506141f6565b61405a6040518060400160405280600981526020017f6e65775072696365410000000000000000000000000000000000000000000000815250600654613b58565b61409b6040518060400160405280600981526020017f6e6577526174696f410000000000000000000000000000000000000000000000815250600a54613b58565b6140dc6040518060400160405280600981526020017f6e6577526174696f420000000000000000000000000000000000000000000000815250600b54613b58565b505050505050565b6000806140f184846145be565b60005491935091506001600160a01b038084169116141561413f57600080547fffffffffffffffffffffff00ffffffffffffffffffffffffffffffffffffffff16600160a01b179055614195565b6000546001600160a01b03828116911614156141955760048054600160a01b7fffffffffffffffffffffff00ffffffffffffffffffffffffffffffffffffffff9182168117909255600080549091169091179055905b9250929050565b600082820183811015613a3d576040805162461bcd60e51b815260206004820152601b60248201527f536166654d6174683a206164646974696f6e206f766572666c6f770000000000604482015290519081900360640190fd5b6142b5816040516024018080602001828103825283818151815260200191508051906020019080838360005b8381101561423a578181015183820152602001614222565b50505050905090810190601f1680156142675780820380516001836020036101000a031916815260200191505b5060408051601f198184030181529190526020810180516001600160e01b03167f41304fac00000000000000000000000000000000000000000000000000000000179052925061439c915050565b50565b6000613a3d83836040518060400160405280601e81526020017f536166654d6174683a207375627472616374696f6e206f766572666c6f7700008152506145ef565b600081836143865760405162461bcd60e51b81526004018080602001828103825283818151815260200191508051906020019080838360005b8381101561434b578181015183820152602001614333565b50505050905090810190601f1680156143785780820380516001836020036101000a031916815260200191505b509250505060405180910390fd5b50600083858161439257fe5b0495945050505050565b80516a636f6e736f6c652e6c6f67602083016000808483855afa5050505050565b60008060006143ca614649565b9050836001600160a01b0316635909c0d56040518163ffffffff1660e01b815260040160206040518083038186803b15801561440557600080fd5b505afa158015614419573d6000803e3d6000fd5b505050506040513d602081101561442f57600080fd5b5051604080517f5a3d549300000000000000000000000000000000000000000000000000000000815290519194506001600160a01b03861691635a3d549391600480820192602092909190829003018186803b15801561448e57600080fd5b505afa1580156144a2573d6000803e3d6000fd5b505050506040513d60208110156144b857600080fd5b5051604080517f0902f1ac0000000000000000000000000000000000000000000000000000000081529051919350600091829182916001600160a01b03891691630902f1ac916004808301926060929190829003018186803b15801561451d57600080fd5b505afa158015614531573d6000803e3d6000fd5b505050506040513d606081101561454757600080fd5b5080516020820151604090920151909450909250905063ffffffff808216908516146145b45780840363ffffffff81166145818486614653565b516001600160e01b031602969096019563ffffffff81166145a28585614653565b516001600160e01b0316029590950194505b5050509193909250565b600080826001600160a01b0316846001600160a01b0316106145e15782846145e4565b83835b909590945092505050565b600081848411156146415760405162461bcd60e51b815260206004820181815283516024840152835190928392604490910191908501908083836000831561434b578181015183820152602001614333565b505050900390565b63ffffffff421690565b61465b61471c565b6000826dffffffffffffffffffffffffffff16116146c0576040805162461bcd60e51b815260206004820152601760248201527f4669786564506f696e743a204449565f42595f5a45524f000000000000000000604482015290519081900360640190fd5b6040805160208101909152806dffffffffffffffffffffffffffff84167bffffffffffffffffffffffffffff0000000000000000000000000000607087901b168161470757fe5b046001600160e01b0316815250905092915050565b6040805160208101909152600081529056fe536166654d6174683a206d756c7469706c69636174696f6e206f766572666c6f77a26469706673582212204d4bf18b2a55e185137204c4b760112f6ad83e8e2b01214bb4e2760aa6bd4ce064736f6c63430007010033a2646970667358221220326feeff913be5044ec361179474fc8f1a9fe82263abd4a394aa12ae9dedfa0164736f6c63430007010033",
  "devdoc": {
    "kind": "dev",
    "methods": {},
    "version": 1
  },
  "userdoc": {
    "kind": "user",
    "methods": {},
    "version": 1
  },
  "storageLayout": {
    "storage": [
      {
        "astId": 11322,
        "contract": "src/SLFactory.sol:SLFactory",
        "label": "getPoolFromTokens",
        "offset": 0,
        "slot": "0",
        "type": "t_mapping(t_address,t_mapping(t_address,t_address))"
      },
      {
        "astId": 11326,
        "contract": "src/SLFactory.sol:SLFactory",
        "label": "getPoolFromPair",
        "offset": 0,
        "slot": "1",
        "type": "t_mapping(t_address,t_address)"
      },
      {
        "astId": 11329,
        "contract": "src/SLFactory.sol:SLFactory",
        "label": "allPools",
        "offset": 0,
        "slot": "2",
        "type": "t_array(t_address)dyn_storage"
      }
    ],
    "types": {
      "t_address": {
        "encoding": "inplace",
        "label": "address",
        "numberOfBytes": "20"
      },
      "t_array(t_address)dyn_storage": {
        "base": "t_address",
        "encoding": "dynamic_array",
        "label": "address[]",
        "numberOfBytes": "32"
      },
      "t_mapping(t_address,t_address)": {
        "encoding": "mapping",
        "key": "t_address",
        "label": "mapping(address => address)",
        "numberOfBytes": "32",
        "value": "t_address"
      },
      "t_mapping(t_address,t_mapping(t_address,t_address))": {
        "encoding": "mapping",
        "key": "t_address",
        "label": "mapping(address => mapping(address => address))",
        "numberOfBytes": "32",
        "value": "t_mapping(t_address,t_address)"
      }
    }
  },
  "gasEstimates": {
    "creation": {
      "codeDepositCost": "4066800",
      "executionCost": "infinite",
      "totalCost": "infinite"
    },
    "external": {
      "WETH()": "infinite",
      "allPools(uint256)": "1993",
      "allPoolsLength()": "1042",
      "createPool(address,address,address)": "infinite",
      "getPoolFromPair(address)": "1208",
      "getPoolFromTokens(address,address)": "1316",
      "uniFactory()": "infinite",
      "uniRouter()": "infinite"
    }
  }
}