{
  "abi": [
    {
      "inputs": [
        {
          "internalType": "address",
          "name": "_uniFactory",
          "type": "address"
        },
        {
          "internalType": "address",
          "name": "wethtAddress",
          "type": "address"
        },
        {
          "internalType": "address",
          "name": "_uniRouter",
          "type": "address"
        }
      ],
      "stateMutability": "nonpayable",
      "type": "constructor"
    },
    {
      "anonymous": false,
      "inputs": [
        {
          "indexed": true,
          "internalType": "address",
          "name": "token0",
          "type": "address"
        },
        {
          "indexed": true,
          "internalType": "address",
          "name": "token1",
          "type": "address"
        },
        {
          "indexed": false,
          "internalType": "address",
          "name": "pair",
          "type": "address"
        },
        {
          "indexed": false,
          "internalType": "address",
          "name": "pool",
          "type": "address"
        },
        {
          "indexed": false,
          "internalType": "address",
          "name": "oracle",
          "type": "address"
        },
        {
          "indexed": false,
          "internalType": "uint256",
          "name": "",
          "type": "uint256"
        }
      ],
      "name": "PoolCreated",
      "type": "event"
    },
    {
      "inputs": [],
      "name": "WETH",
      "outputs": [
        {
          "internalType": "address",
          "name": "",
          "type": "address"
        }
      ],
      "stateMutability": "view",
      "type": "function"
    },
    {
      "inputs": [
        {
          "internalType": "uint256",
          "name": "",
          "type": "uint256"
        }
      ],
      "name": "allPools",
      "outputs": [
        {
          "internalType": "address",
          "name": "",
          "type": "address"
        }
      ],
      "stateMutability": "view",
      "type": "function"
    },
    {
      "inputs": [],
      "name": "allPoolsLength",
      "outputs": [
        {
          "internalType": "uint256",
          "name": "",
          "type": "uint256"
        }
      ],
      "stateMutability": "view",
      "type": "function"
    },
    {
      "inputs": [
        {
          "internalType": "address",
          "name": "tokenA",
          "type": "address"
        },
        {
          "internalType": "address",
          "name": "tokenB",
          "type": "address"
        },
        {
          "internalType": "address",
          "name": "oracle",
          "type": "address"
        }
      ],
      "name": "createPool",
      "outputs": [
        {
          "internalType": "address payable",
          "name": "pool",
          "type": "address"
        }
      ],
      "stateMutability": "nonpayable",
      "type": "function"
    },
    {
      "inputs": [
        {
          "internalType": "address",
          "name": "",
          "type": "address"
        }
      ],
      "name": "getPoolFromPair",
      "outputs": [
        {
          "internalType": "address",
          "name": "",
          "type": "address"
        }
      ],
      "stateMutability": "view",
      "type": "function"
    },
    {
      "inputs": [
        {
          "internalType": "address",
          "name": "",
          "type": "address"
        },
        {
          "internalType": "address",
          "name": "",
          "type": "address"
        }
      ],
      "name": "getPoolFromTokens",
      "outputs": [
        {
          "internalType": "address",
          "name": "",
          "type": "address"
        }
      ],
      "stateMutability": "view",
      "type": "function"
    },
    {
      "inputs": [],
      "name": "uniFactory",
      "outputs": [
        {
          "internalType": "address",
          "name": "",
          "type": "address"
        }
      ],
      "stateMutability": "view",
      "type": "function"
    },
    {
      "inputs": [],
      "name": "uniRouter",
      "outputs": [
        {
          "internalType": "address",
          "name": "",
          "type": "address"
        }
      ],
      "stateMutability": "view",
      "type": "function"
    }
  ],
  "address": "0x3f0F77791224B31191C497cE60f3f27643b3D68e",
  "args": [
    "0x0415a2095D698cbA7a9a95b22De1E73e864640c0",
    "0xC6276cF9EBB4C7f134Be16379166E814eB82c876",
    "0x600500c06e23c2c19b0BA001e7088eceEeE69c55"
  ],
  "solcInputHash": "0x43e7fd14395d29c7a411ebffe6157f53552ce28ab668d996c468feb0c53c7bfb",
  "bytecode": "0x60e060405234801561001057600080fd5b506040516151a73803806151a78339818101604052606081101561003357600080fd5b50805160208201516040909201516001600160601b0319606092831b811660805292821b831660a052901b1660c05260805160601c60a05160601c60c05160601c6150fc6100ab6000398061052352806107015250806104d352806107255250806102a752806104fb52806106dd52506150fc6000f3fe608060405234801561001057600080fd5b50600436106100885760003560e01c8063a0e47bf61161005b578063a0e47bf61461012c578063ad5c464814610134578063efde4e641461013c578063f3e7b4fd1461015657610088565b8063236aea2e1461008d57806341d1de97146100e15780634ce19cb0146100fe57806376771d4b14610124575b600080fd5b6100c5600480360360608110156100a357600080fd5b506001600160a01b038135811691602081013582169160409091013516610184565b604080516001600160a01b039092168252519081900360200190f35b6100c5600480360360208110156100f757600080fd5b5035610699565b6100c56004803603602081101561011457600080fd5b50356001600160a01b03166106c0565b6100c56106db565b6100c56106ff565b6100c5610723565b610144610747565b60408051918252519081900360200190f35b6100c56004803603604081101561016c57600080fd5b506001600160a01b038135811691602001351661074d565b6000826001600160a01b0316846001600160a01b031614156101ed576040805162461bcd60e51b815260206004820152601e60248201527f53544f50204c4f53533a204944454e544943414c5f4144445245535345530000604482015290519081900360640190fd5b6001600160a01b038416610248576040805162461bcd60e51b815260206004820152601e60248201527f53544f50204c4f53533a20544f4b454e3a205a45524f5f414444524553530000604482015290519081900360640190fd5b6001600160a01b0383166102a3576040805162461bcd60e51b815260206004820152601e60248201527f53544f50204c4f53533a20544f4b454e3a205a45524f5f414444524553530000604482015290519081900360640190fd5b60007f00000000000000000000000000000000000000000000000000000000000000006001600160a01b031663e6a4390586866040518363ffffffff1660e01b815260040180836001600160a01b03168152602001826001600160a01b031681526020019250505060206040518083038186803b15801561032357600080fd5b505afa158015610337573d6000803e3d6000fd5b505050506040513d602081101561034d57600080fd5b505190506001600160a01b0381166103ac576040805162461bcd60e51b815260206004820152601c60248201527f53544f50204c4f53533a20554e49504149525f4e4f545f455849535400000000604482015290519081900360640190fd5b6001600160a01b038181166000908152600160205260409020541615610419576040805162461bcd60e51b815260206004820152601660248201527f53544f50204c4f53533a20504f4f4c5f45584953545300000000000000000000604482015290519081900360640190fd5b60606040518060200161042b90610770565b6020820181038252601f19601f82011660405250905060008260405160200180826001600160a01b031660601b8152601401915050604051602081830303815290604052805190602001209050808251602084016000f5604080517f358764760000000000000000000000000000000000000000000000000000000081526001600160a01b0386811660048301528a81166024830152898116604483015288811660648301527f0000000000000000000000000000000000000000000000000000000000000000811660848301527f0000000000000000000000000000000000000000000000000000000000000000811660a48301527f0000000000000000000000000000000000000000000000000000000000000000811660c483015291519296509086169163358764769160e48082019260009290919082900301818387803b15801561057957600080fd5b505af115801561058d573d6000803e3d6000fd5b505050506001600160a01b038781166000818152602081815260408083208b861680855290835281842080548b88167fffffffffffffffffffffffff00000000000000000000000000000000000000009182168117909255858552838620878752855283862080548216831790558a881680875260018087528588208054841685179055600280549182018155978890527f405787fa12a823e0f2b7631cc41b3ba8828b3321ca811111fa75cd3aa3bb5ace01805490921681179091559454835195865293850152948a16838201526060830191909152517ffe834702cbdeb62c6d1bffbab6dd4e1b0f42e5d5f81e1d228e2b228734a6c8329181900360800190a35050509392505050565b600281815481106106a657fe5b6000918252602090912001546001600160a01b0316905081565b6001602052600090815260409020546001600160a01b031681565b7f000000000000000000000000000000000000000000000000000000000000000081565b7f000000000000000000000000000000000000000000000000000000000000000081565b7f000000000000000000000000000000000000000000000000000000000000000081565b60025490565b60006020818152928152604080822090935290815220546001600160a01b031681565b6149498061077e8339019056fe60a060405234801561001057600080fd5b5033606081901b608052614913610036600039806108a25280610bc552506149136000f3fe6080604052600436106102525760003560e01c80639864229911610138578063c5700a02116100b0578063dc5fa6c51161007f578063f03ef2d011610064578063f03ef2d01461072e578063f4dab28b14610767578063fff6cae91461062057610259565b8063dc5fa6c5146106ef578063dd51700c1461070457610259565b8063c5700a0214610635578063c64f559714610663578063cb45bc92146106b0578063d62c9e13146106da57610259565b8063ad5c464811610107578063b6353567116100ec578063b6353567146105f6578063b6add0f41461060b578063bbd4c6c91461062057610259565b8063ad5c4648146105cc578063b4d1d795146105e157610259565b80639864229914610539578063989443271461054e578063a0e47bf614610578578063abd96b4e1461058d57610259565b806359158d48116101cb57806367e368fc1161019a5780637dc0d1d01161017f5780637dc0d1d0146104f25780638bdb2afa14610507578063948483a21461051c57610259565b806367e368fc146104c85780636aedea73146104dd57610259565b806359158d48146104365780635a806ac0146104605780635f64b55b146104895780635ffef9721461049e57610259565b806332972e4611610222578063405a506d11610207578063405a506d146103805780634219dc40146103da57806349f2b17b146103ef57610259565b806332972e4614610306578063358764761461031b57610259565b8062f714ce1461025e5780630fc63d101461029957806319e36f3b146102ca5780632f91e0ff146102f157610259565b3661025957005b600080fd5b34801561026a57600080fd5b506102976004803603604081101561028157600080fd5b50803590602001356001600160a01b03166107a6565b005b3480156102a557600080fd5b506102ae61086d565b604080516001600160a01b039092168252519081900360200190f35b3480156102d657600080fd5b506102df61087c565b60408051918252519081900360200190f35b3480156102fd57600080fd5b506102df610882565b34801561031257600080fd5b506102ae610888565b34801561032757600080fd5b50610297600480360360e081101561033e57600080fd5b506001600160a01b038135811691602081013582169160408201358116916060810135821691608082013581169160a081013582169160c09091013516610897565b34801561038c57600080fd5b506103aa600480360360208110156103a357600080fd5b5035610b82565b604080516001600160a01b0390951685526020850193909352838301919091526060830152519081900360800190f35b3480156103e657600080fd5b506102ae610bc3565b3480156103fb57600080fd5b506102976004803603608081101561041257600080fd5b506001600160a01b0381351690602081013590604081013590606001351515610be7565b34801561044257600080fd5b506102976004803603602081101561045957600080fd5b50356112ce565b34801561046c57600080fd5b506104756119e4565b604080519115158252519081900360200190f35b34801561049557600080fd5b506102ae6119f4565b3480156104aa57600080fd5b50610297600480360360208110156104c157600080fd5b5035611a03565b3480156104d457600080fd5b50610475612050565b3480156104e957600080fd5b506102df612060565b3480156104fe57600080fd5b506102ae612066565b34801561051357600080fd5b506102ae612075565b6102976004803603602081101561053257600080fd5b5035612084565b34801561054557600080fd5b506102df6121bd565b34801561055a57600080fd5b506102976004803603602081101561057157600080fd5b5035612252565b34801561058457600080fd5b506102ae612b28565b34801561059957600080fd5b50610297600480360360608110156105b057600080fd5b508035906001600160a01b036020820135169060400135612b37565b3480156105d857600080fd5b506102ae612b4a565b3480156105ed57600080fd5b506102df612b59565b34801561060257600080fd5b506102df612b5e565b34801561061757600080fd5b50610297612b64565b34801561062c57600080fd5b50610297612c22565b34801561064157600080fd5b5061064a612c24565b6040805163ffffffff9092168252519081900360200190f35b34801561066f57600080fd5b50610297600480360360a081101561068657600080fd5b508035906001600160a01b0360208201351690604081013590606081013590608001351515612c37565b3480156106bc57600080fd5b506103aa600480360360208110156106d357600080fd5b50356131e4565b3480156106e657600080fd5b506102df6131f1565b3480156106fb57600080fd5b506102df6131f7565b34801561071057600080fd5b506102976004803603602081101561072757600080fd5b50356131fd565b34801561073a57600080fd5b506102976004803603604081101561075157600080fd5b50803590602001356001600160a01b0316613ab7565b34801561077357600080fd5b506102976004803603606081101561078a57600080fd5b506001600160a01b038135169060208101359060400135613b68565b6003546001600160a01b0382811691161461081d576004546001600160a01b0382811691161461081d576040805162461bcd60e51b815260206004820152601360248201527f534c504f4f4c3a2057726f6e6720546f6b656e00000000000000000000000000604482015290519081900360640190fd5b600054600160a01b900460ff1615610861576004546001600160a01b03828116911614156108535761084e826112ce565b61085c565b61085c82611a03565b610869565b610869612c22565b5050565b6003546001600160a01b031681565b60085481565b600b5481565b6002546001600160a01b031681565b336001600160a01b037f00000000000000000000000000000000000000000000000000000000000000001614610914576040805162461bcd60e51b815260206004820152601160248201527f534c506f6f6c3a20464f5242494444454e000000000000000000000000000000604482015290519081900360640190fd5b600280546001600160a01b03808a1673ffffffffffffffffffffffffffffffffffffffff19928316179092556001805485841690831617905560008054868416908316179055600c8054928416929091169190911790556109758686613b75565b6004805473ffffffffffffffffffffffffffffffffffffffff199081166001600160a01b039384161790915560038054821693831693909317909255600580549092169086161790556109c6612b64565b600254600c546040805163095ea7b360e01b81526001600160a01b0392831660048201526c7e37be2022c0914b268000000060248201529051919092169163095ea7b39160448083019260209291908290030181600087803b158015610a2b57600080fd5b505af1158015610a3f573d6000803e3d6000fd5b505050506040513d6020811015610a5557600080fd5b5050600354600c546040805163095ea7b360e01b81526001600160a01b0392831660048201526c7e37be2022c0914b268000000060248201529051919092169163095ea7b39160448083019260209291908290030181600087803b158015610abc57600080fd5b505af1158015610ad0573d6000803e3d6000fd5b505050506040513d6020811015610ae657600080fd5b505060048054600c546040805163095ea7b360e01b81526001600160a01b03928316948101949094526c7e37be2022c0914b268000000060248501525191169163095ea7b39160448083019260209291908290030181600087803b158015610b4d57600080fd5b505af1158015610b61573d6000803e3d6000fd5b505050506040513d6020811015610b7757600080fd5b505050505050505050565b600d8181548110610b8f57fe5b600091825260209091206004909102018054600182015460028301546003909301546001600160a01b039092169350919084565b7f000000000000000000000000000000000000000000000000000000000000000081565b818311610c3b576040805162461bcd60e51b815260206004820152601b60248201527f534c504f4f4c3a20544f4f5f4c415247455f47554152414e5445450000000000604482015290519081900360640190fd5b60408051600280825260608083018452926020830190803683370190505090508481600081518110610c6957fe5b6001600160a01b039283166020918202929092010152600454868216911614610c9d576004546001600160a01b0316610caa565b6003546001600160a01b03165b81600181518110610cb757fe5b6001600160a01b039290921660209283029190910190910152604080516002808252606082810190935281602001602082028036833701905050905082610d9357604080517f23b872dd0000000000000000000000000000000000000000000000000000000081523360048201523060248201526044810187905290516001600160a01b038816916323b872dd9160648083019260209291908290030181600087803b158015610d6657600080fd5b505af1158015610d7a573d6000803e3d6000fd5b505050506040513d6020811015610d9057600080fd5b50505b8215610fb857610dec6040518060400160405280600581526020017f706174683000000000000000000000000000000000000000000000000000000081525083600081518110610ddf57fe5b6020026020010151613c2d565b610e326040518060400160405280600581526020017f706174683100000000000000000000000000000000000000000000000000000081525083600181518110610ddf57fe5b610e716040518060400160405280601181526020017f616d6f756e74546f47756172616e74656500000000000000000000000000000081525085613cfd565b610eb06040518060400160405280600c81526020017f616d6f756e74546f53656e64000000000000000000000000000000000000000081525086613cfd565b604080518082018252600f81527f62616c616e6365206f662057657468000000000000000000000000000000000060208083019190915260035483517f70a082310000000000000000000000000000000000000000000000000000000081523060048201529351610f79946001600160a01b03909216926370a082319260248082019391829003018186803b158015610f4857600080fd5b505afa158015610f5c573d6000803e3d6000fd5b505050506040513d6020811015610f7257600080fd5b5051613cfd565b610fb86040518060400160405280600781526020017f746f6b656e496e0000000000000000000000000000000000000000000000000081525087613c2d565b600c546001600160a01b03166338ed1739610fd4876002613dc4565b60008530643d09b8a35f6040518663ffffffff1660e01b81526004018086815260200185815260200180602001846001600160a01b03168152602001838152602001828103825285818151815260200191508051906020019060200280838360005b8381101561104e578181015183820152602001611036565b505050509050019650505050505050600060405180830381600087803b15801561107757600080fd5b505af115801561108b573d6000803e3d6000fd5b505050506040513d6000823e601f3d908101601f1916820160405260208110156110b457600080fd5b81019080805160405193929190846401000000008211156110d457600080fd5b9083019060208201858111156110e957600080fd5b825186602082028301116401000000008211171561110657600080fd5b82525081516020918201928201910280838360005b8381101561113357818101518382015260200161111b565b5050505090500160405250505090506000600c60009054906101000a90046001600160a01b03166001600160a01b031663e8e337008460018151811061117557fe5b60200260200101518560008151811061118a57fe5b60200260200101518560018151811061119f57fe5b6020026020010151866000815181106111b457fe5b602002602001015160008030643d09b8a35f6040518963ffffffff1660e01b815260040180896001600160a01b03168152602001886001600160a01b03168152602001878152602001868152602001858152602001848152602001836001600160a01b0316815260200182815260200198505050505050505050606060405180830381600087803b15801561124857600080fd5b505af115801561125c573d6000803e3d6000fd5b505050506040513d606081101561127257600080fd5b506040908101518151808301909252600982527f4c5020546f6b656e730000000000000000000000000000000000000000000000602083015291506112b79082613cfd565b6112c5818887896001612c37565b50505050505050565b336001600160a01b0316600e82815481106112e557fe5b60009182526020909120600490910201546001600160a01b031614611351576040805162461bcd60e51b815260206004820152601d60248201527f534c504f4f4c3a2053454e4445525f4e4f545f415554484f52495a4544000000604482015290519081900360640190fd5b600c54600454600e805460009384936001600160a01b03918216936302751cec9392909116918790811061138157fe5b90600052602060002090600402016001015460008030643d09b8a35f6040518763ffffffff1660e01b815260040180876001600160a01b03168152602001868152602001858152602001848152602001836001600160a01b0316815260200182815260200196505050505050506040805180830381600087803b15801561140757600080fd5b505af115801561141b573d6000803e3d6000fd5b505050506040513d604081101561143157600080fd5b5080516020918201516040805160028082526060808301845294975092955092938301908036833750506000805483519394506001600160a01b03169284925061147757fe5b6001600160a01b0392831660209182029290920101526004548251911690829060019081106114a257fe5b6001600160a01b039290921660209283029190910190910152604080516002808252606082810190935281602001602082028036833701905050600c546040517f7ff36ab50000000000000000000000000000000000000000000000000000000081526000600482018181523060448401819052643d09b8a35f606485018190526080602486019081528951608487015289519798506001600160a01b0390961696637ff36ab5968b968b959260a490910190602080880191028083838b5b83811015611579578181015183820152602001611561565b50505050905001955050505050506000604051808303818588803b1580156115a057600080fd5b505af11580156115b4573d6000803e3d6000fd5b50505050506040513d6000823e601f3d908101601f1916820160405260208110156115de57600080fd5b81019080805160405193929190846401000000008211156115fe57600080fd5b90830190602082018581111561161357600080fd5b825186602082028301116401000000008211171561163057600080fd5b82525081516020918201928201910280838360005b8381101561165d578181015183820152602001611645565b505050509050016040525050509050600460009054906101000a90046001600160a01b03166001600160a01b031663a9059cbb336116b887856001815181106116a257fe5b6020026020010151613e0f90919063ffffffff16565b6040518363ffffffff1660e01b815260040180836001600160a01b0316815260200182815260200192505050602060405180830381600087803b1580156116fe57600080fd5b505af1158015611712573d6000803e3d6000fd5b505050506040513d602081101561172857600080fd5b5050600254600e80547faa21aa8cc0cd88a1d2690c7f73b3b1cd3037104d7dd94f82c766ba4fe941952a926001600160a01b03169188913391908390811061176c57fe5b906000526020600020906004020160010154600460009054906101000a90046001600160a01b03166117a58a886001815181106116a257fe5b60405180876001600160a01b03168152602001868152602001856001600160a01b03168152602001848152602001836001600160a01b03168152602001828152602001965050505050505060405180910390a16118366040518060400160405280600f81526020017f3e3e3e4e65772057697468647261770000000000000000000000000000000000815250613e69565b6040805180820190915260078152663ab734a830b4b960c91b602082015260025461186a91906001600160a01b0316613c2d565b6118976040518060400160405280600b81526020016a37b93232b9273ab6b132b960a91b81525086613cfd565b6118c06040518060400160405280600781526020016637b93232b932b960c91b81525033613c2d565b611908604051806040016040528060088152602001671b1c105b5bdd5b9d60c21b815250600e87815481106118f157fe5b906000526020600020906004020160010154613cfd565b60408051808201909152601081526f746f6b656e546f47756172616e74656560801b602082015260045461194591906001600160a01b0316613c2d565b6119946040518060400160405280600d81526020017f746f6b656e57697468647261770000000000000000000000000000000000000081525061198f86846001815181106116a257fe5b613cfd565b600e85815481106119a157fe5b600091825260208220600490910201805473ffffffffffffffffffffffffffffffffffffffff191681556001810182905560028101829055600301555050505050565b600054600160a01b900460ff1681565b6004546001600160a01b031681565b336001600160a01b0316600d8281548110611a1a57fe5b60009182526020909120600490910201546001600160a01b031614611a86576040805162461bcd60e51b815260206004820152601d60248201527f534c504f4f4c3a2053454e4445525f4e4f545f415554484f52495a4544000000604482015290519081900360640190fd5b600c54600454600d805460009384936001600160a01b03918216936302751cec93929091169187908110611ab657fe5b90600052602060002090600402016001015460008030643d09b8a35f6040518763ffffffff1660e01b815260040180876001600160a01b03168152602001868152602001858152602001848152602001836001600160a01b0316815260200182815260200196505050505050506040805180830381600087803b158015611b3c57600080fd5b505af1158015611b50573d6000803e3d6000fd5b505050506040513d6040811015611b6657600080fd5b50805160209182015160408051600280825260608083018452949750929550929383019080368337505060045482519293506001600160a01b031691839150600090611bae57fe5b6001600160a01b039283166020918202929092010152600054825191169082906001908110611bd957fe5b6001600160a01b039290921660209283029190910190910152604080516002808252606082810190935281602001602082028036833701905050600c546040517f18cbafe5000000000000000000000000000000000000000000000000000000008152600481018781526000602483018190523060648401819052643d09b8a35f6084850181905260a060448601908152895160a487015289519798506001600160a01b03909616966318cbafe5968c9694958b95909260c490910190602080880191028083838b5b83811015611cba578181015183820152602001611ca2565b505050509050019650505050505050600060405180830381600087803b158015611ce357600080fd5b505af1158015611cf7573d6000803e3d6000fd5b505050506040513d6000823e601f3d908101601f191682016040526020811015611d2057600080fd5b8101908080516040519392919084640100000000821115611d4057600080fd5b908301906020820185811115611d5557600080fd5b8251866020820283011164010000000082111715611d7257600080fd5b82525081516020918201928201910280838360005b83811015611d9f578181015183820152602001611d87565b505050509050016040525050509050336001600160a01b03166108fc611dcc85846001815181106116a257fe5b6040518115909202916000818181858888f19350505050158015611df4573d6000803e3d6000fd5b50600254600d80547faa21aa8cc0cd88a1d2690c7f73b3b1cd3037104d7dd94f82c766ba4fe941952a926001600160a01b031691889133919083908110611e3757fe5b906000526020600020906004020160010154600360009054906101000a90046001600160a01b0316611e7089886001815181106116a257fe5b60405180876001600160a01b03168152602001868152602001856001600160a01b03168152602001848152602001836001600160a01b03168152602001828152602001965050505050505060405180910390a1611f016040518060400160405280600f81526020017f3e3e3e4e65772057697468647261770000000000000000000000000000000000815250613e69565b6040805180820190915260078152663ab734a830b4b960c91b6020820152600254611f3591906001600160a01b0316613c2d565b611f626040518060400160405280600b81526020016a37b93232b9273ab6b132b960a91b81525086613cfd565b611f8b6040518060400160405280600781526020016637b93232b932b960c91b81525033613c2d565b611fbc604051806040016040528060088152602001671b1c105b5bdd5b9d60c21b815250600d87815481106118f157fe5b60408051808201909152601081526f746f6b656e546f47756172616e74656560801b6020820152600354611ff991906001600160a01b0316613c2d565b6120436040518060400160405280600d81526020017f746f6b656e57697468647261770000000000000000000000000000000000000081525061198f85846001815181106116a257fe5b600d85815481106119a157fe5b600454600160a01b900460ff1681565b60095481565b6005546001600160a01b031681565b6001546001600160a01b031681565b600054600160a01b900460ff166120e2576040805162461bcd60e51b815260206004820152601560248201527f534c504f4f4c3a204e4f545f574554485f504f4f4c0000000000000000000000604482015290519081900360640190fd5b803411612136576040805162461bcd60e51b815260206004820152601f60248201527f534c504f4f4c3a20544f4f5f4c415247455f4554485f47554152414e54454500604482015290519081900360640190fd5b600360009054906101000a90046001600160a01b03166001600160a01b031663d0e30db0346040518263ffffffff1660e01b81526004016000604051808303818588803b15801561218657600080fd5b505af115801561219a573d6000803e3d6000fd5b50506003546121ba93506001600160a01b03169150349050836001610be7565b50565b600254604080517f70a0823100000000000000000000000000000000000000000000000000000000815230600482015290516000926001600160a01b0316916370a08231916024808301926020929190829003018186803b15801561222157600080fd5b505afa158015612235573d6000803e3d6000fd5b505050506040513d602081101561224b57600080fd5b5051905090565b6122986064612292612265826005613e0f565b600e858154811061227257fe5b906000526020600020906004020160020154613f2890919063ffffffff16565b90613dc4565b600b54106122ed576040805162461bcd60e51b815260206004820152601760248201527f534c504f4f4c3a20524154494f5f434f4e444954494f4e000000000000000000604482015290519081900360640190fd5b600c54600454600e805460009384936001600160a01b03918216936302751cec9392909116918790811061231d57fe5b90600052602060002090600402016001015460008030643d09b8a35f6040518763ffffffff1660e01b815260040180876001600160a01b03168152602001868152602001858152602001848152602001836001600160a01b0316815260200182815260200196505050505050506040805180830381600087803b1580156123a357600080fd5b505af11580156123b7573d6000803e3d6000fd5b505050506040513d60408110156123cd57600080fd5b508051602090910151600e8054929450909250600091859081106123ed57fe5b6000918252602090912060049190910201600301546040805160028082526060828101909352929350909181602001602082028036833750506000805483519394506001600160a01b03169284925061244257fe5b6001600160a01b03928316602091820292909201015260045482519116908290600190811061246d57fe5b6001600160a01b0392909216602092830291909101909101526040805160018082528183019092526060918160200160208202803683375050600c54919250506001600160a01b031663fb3bdb41856124c68689613f81565b8530643d09b8a35f6040518663ffffffff1660e01b81526004018085815260200180602001846001600160a01b03168152602001838152602001828103825285818151815260200191508051906020019060200280838360005b83811015612538578181015183820152602001612520565b50505050905001955050505050506000604051808303818588803b15801561255f57600080fd5b505af1158015612573573d6000803e3d6000fd5b50505050506040513d6000823e601f3d908101601f19168201604052602081101561259d57600080fd5b81019080805160405193929190846401000000008211156125bd57600080fd5b9083019060208201858111156125d257600080fd5b82518660208202830111640100000000821117156125ef57600080fd5b82525081516020918201928201910280838360005b8381101561261c578181015183820152602001612604565b505050509050016040525050509050600460009054906101000a90046001600160a01b03166001600160a01b031663a9059cbb600e888154811061265c57fe5b906000526020600020906004020160000160009054906101000a90046001600160a01b0316856040518363ffffffff1660e01b815260040180836001600160a01b0316815260200182815260200192505050602060405180830381600087803b1580156126c857600080fd5b505af11580156126dc573d6000803e3d6000fd5b505050506040513d60208110156126f257600080fd5b5050805133906108fc90839060009061270757fe5b602002602001015186039081150290604051600060405180830381858888f1935050505015801561273c573d6000803e3d6000fd5b50600254600e80547fffa335879a58d6e36033d19edf38a91429a790b15c4ea556e6ab539494202793926001600160a01b03169189918290811061277c57fe5b906000526020600020906004020160000160009054906101000a90046001600160a01b031633600e8b815481106127af57fe5b906000526020600020906004020160010154600460009054906101000a90046001600160a01b031689600360009054906101000a90046001600160a01b0316896000815181106127fb57fe5b602090810291909101810151604080516001600160a01b039b8c16815292830199909952968916818901529488166060860152608085019390935290861660a084015260c083015290931660e0840152870361010083015251908190036101200190a161289c6040518060400160405280601981526020017f3e3e3e4e65772053746f704c6f737320457865637574696f6e00000000000000815250613e69565b6040805180820190915260078152663ab734a830b4b960c91b60208201526002546128d091906001600160a01b0316613c2d565b6128fd6040518060400160405280600b81526020016a37b93232b9273ab6b132b960a91b81525087613cfd565b61294c6040518060400160405280600781526020016637b93232b932b960c91b815250600e888154811061292d57fe5b60009182526020909120600490910201546001600160a01b0316613c2d565b61298b6040518060400160405280600a81526020017f6c697175696461746f720000000000000000000000000000000000000000000081525033613c2d565b6129bc604051806040016040528060088152602001671b1c105b5bdd5b9d60c21b815250600e88815481106118f157fe5b60408051808201909152601081526f746f6b656e546f47756172616e74656560801b60208201526004546129f991906001600160a01b0316613c2d565b612a386040518060400160405280601681526020017f746f6b656e2057697468647261776e20616d6f756e740000000000000000000081525084613cfd565b60408051808201909152601181527f746f6b656e546f4c697175696461746f720000000000000000000000000000006020820152600354612a8291906001600160a01b0316613c2d565b612ad76040518060400160405280600c81526020017f657468657220746f204c6971000000000000000000000000000000000000000081525082600081518110612ac857fe5b60200260200101518603613cfd565b600e8681548110612ae457fe5b600091825260208220600490910201805473ffffffffffffffffffffffffffffffffffffffff19168155600181018290556002810182905560030155505050505050565b600c546001600160a01b031681565b612b45838383600080612c37565b505050565b6000546001600160a01b031681565b600181565b60065481565b600560009054906101000a90046001600160a01b03166001600160a01b031663c5700a026040518163ffffffff1660e01b815260040160206040518083038186803b158015612bb257600080fd5b505afa158015612bc6573d6000803e3d6000fd5b505050506040513d6020811015612bdc57600080fd5b50516005805463ffffffff909216600160a01b027fffffffffffffffff00000000ffffffffffffffffffffffffffffffffffffffff909216919091179055612c22613fc3565b565b600554600160a01b900463ffffffff1681565b6003546001906001600160a01b03868116911614612cb5576004546001600160a01b03868116911614612cb1576040805162461bcd60e51b815260206004820152601360248201527f534c504f4f4c3a2057726f6e6720546f6b656e00000000000000000000000000604482015290519081900360640190fd5b5060005b81612d5a57600254604080517f23b872dd0000000000000000000000000000000000000000000000000000000081523360048201523060248201526044810189905290516001600160a01b03909216916323b872dd916064808201926020929091908290030181600087803b158015612d2d57600080fd5b505af1158015612d41573d6000803e3d6000fd5b505050506040513d6020811015612d5757600080fd5b50505b6000612d6d8761229287620f4240613f28565b905060008215612e795750604080516080810182523381526020810189815291810183815260608201888152600d8054600181018255600082905293517fd7b6990105719101dabeb77144f2a3385c8033acd3af97e9423a695e81ad1eb56004909502948501805473ffffffffffffffffffffffffffffffffffffffff19166001600160a01b0390921691909117905593517fd7b6990105719101dabeb77144f2a3385c8033acd3af97e9423a695e81ad1eb684015590517fd7b6990105719101dabeb77144f2a3385c8033acd3af97e9423a695e81ad1eb7830155517fd7b6990105719101dabeb77144f2a3385c8033acd3af97e9423a695e81ad1eb8909101555460001901612f77565b50604080516080810182523381526020810189815291810183815260608201888152600e8054600181018255600082905293517fbb7b4a454dc3493923482f07822329ed19e8244eff582cc204f8554c3620c3fd6004909502948501805473ffffffffffffffffffffffffffffffffffffffff19166001600160a01b0390921691909117905593517fbb7b4a454dc3493923482f07822329ed19e8244eff582cc204f8554c3620c3fe84015590517fbb7b4a454dc3493923482f07822329ed19e8244eff582cc204f8554c3620c3ff830155517fbb7b4a454dc3493923482f07822329ed19e8244eff582cc204f8554c3620c4009091015554600019015b600254604080516001600160a01b0392831681526020810184905233818301528615156060820152608081018b905291891660a083015260c0820188905260e082018790526101008201849052517fcec7ffc5daae37fc1e2c73f9459553e5fb068db88c9afc2ce6717f2dd35c687d918190036101200190a161302f6040518060400160405280601f81526020017f3e3e3e4e65772053746f704c6f737320526567697374657265642066726f6d0081525033613c2d565b6040805180820190915260078152663ab734a830b4b960c91b602082015260025461306391906001600160a01b0316613c2d565b6130906040518060400160405280600b81526020016a37b93232b9273ab6b132b960a91b81525082613cfd565b6130b96040518060400160405280600781526020016637b93232b932b960c91b81525033613c2d565b6130e3604051806040016040528060088152602001671b1c105b5bdd5b9d60c21b81525089613cfd565b6131226040518060400160405280600781526020017f746f6b656e496e0000000000000000000000000000000000000000000000000081525086613cfd565b6131546040518060400160405280601081526020016f746f6b656e546f47756172616e74656560801b81525088613c2d565b6131936040518060400160405280601181526020017f616d6f756e74546f47756172616e74656500000000000000000000000000000081525087613cfd565b6131d26040518060400160405280600581526020017f726174696f00000000000000000000000000000000000000000000000000000081525083613cfd565b6131da613fc3565b5050505050505050565b600e8181548110610b8f57fe5b600a5481565b60075481565b61323e6040518060400160405280601c81526020017f2d2d5f6578656375746553746f704c6f737345746820726174696f4100000000815250600a54613cfd565b6040805180820190915260208082527f2d2d5f6578656375746553746f704c6f737345746820726174696f2063616c63908201526132969061198f6064612292613289826005613e0f565b600d878154811061227257fe5b6132b660646122926132a9826005613e0f565b600d858154811061227257fe5b600a541061330b576040805162461bcd60e51b815260206004820152601760248201527f534c504f4f4c3a20524154494f5f434f4e444954494f4e000000000000000000604482015290519081900360640190fd5b600c54600454600d805460009384936001600160a01b03918216936302751cec9392909116918790811061333b57fe5b90600052602060002090600402016001015460008030643d09b8a35f6040518763ffffffff1660e01b815260040180876001600160a01b03168152602001868152602001858152602001848152602001836001600160a01b0316815260200182815260200196505050505050506040805180830381600087803b1580156133c157600080fd5b505af11580156133d5573d6000803e3d6000fd5b505050506040513d60408110156133eb57600080fd5b508051602090910151600d80549294509092506000918590811061340b57fe5b60009182526020909120600491909102016003015460408051600280825260608281019093529293509091816020016020820280368337505060045482519293506001600160a01b03169183915060009061346257fe5b6001600160a01b03928316602091820292909201015260005482519116908290600190811061348d57fe5b6001600160a01b0392909216602092830291909101909101526040805160018082528183019092526060918160200160208202803683375050600c54919250506001600160a01b0316634a25d94a6134e58587613f81565b878530643d09b8a35f6040518663ffffffff1660e01b81526004018086815260200185815260200180602001846001600160a01b03168152602001838152602001828103825285818151815260200191508051906020019060200280838360005b8381101561355e578181015183820152602001613546565b505050509050019650505050505050600060405180830381600087803b15801561358757600080fd5b505af115801561359b573d6000803e3d6000fd5b505050506040513d6000823e601f3d908101601f1916820160405260208110156135c457600080fd5b81019080805160405193929190846401000000008211156135e457600080fd5b9083019060208201858111156135f957600080fd5b825186602082028301116401000000008211171561361657600080fd5b82525081516020918201928201910280838360005b8381101561364357818101518382015260200161362b565b505050509050016040525050509050600d868154811061365f57fe5b600091825260208220600490910201546040516001600160a01b039091169185156108fc02918691818181858888f193505050501580156136a4573d6000803e3d6000fd5b5060045481516001600160a01b039091169063a9059cbb90339084906000906136c957fe5b602002602001015188036040518363ffffffff1660e01b815260040180836001600160a01b0316815260200182815260200192505050602060405180830381600087803b15801561371957600080fd5b505af115801561372d573d6000803e3d6000fd5b505050506040513d602081101561374357600080fd5b5050600254600d80547fffa335879a58d6e36033d19edf38a91429a790b15c4ea556e6ab539494202793926001600160a01b03169189918290811061378457fe5b906000526020600020906004020160000160009054906101000a90046001600160a01b031633600d8b815481106137b757fe5b600091825260208220600491820201600101546003549154895191936001600160a01b03938416938d939216918b91906137ed57fe5b602090810291909101810151604080516001600160a01b039b8c16815292830199909952968916818901529488166060860152608085019390935290861660a084015260c083015290931660e0840152880361010083015251908190036101200190a161388e6040518060400160405280601981526020017f3e3e3e4e65772053746f704c6f737320457865637574696f6e00000000000000815250613e69565b6040805180820190915260078152663ab734a830b4b960c91b60208201526002546138c291906001600160a01b0316613c2d565b6138ef6040518060400160405280600b81526020016a37b93232b9273ab6b132b960a91b81525087613cfd565b61391f6040518060400160405280600781526020016637b93232b932b960c91b815250600d888154811061292d57fe5b61395e6040518060400160405280600a81526020017f6c697175696461746f720000000000000000000000000000000000000000000081525033613c2d565b61398f604051806040016040528060088152602001671b1c105b5bdd5b9d60c21b815250600d88815481106118f157fe5b60408051808201909152601081526f746f6b656e546f47756172616e74656560801b60208201526003546139cc91906001600160a01b0316613c2d565b613a0b6040518060400160405280600e81526020017f657468657220576974686472617700000000000000000000000000000000000081525084613cfd565b60408051808201909152601181527f746f6b656e546f4c697175696461746f720000000000000000000000000000006020820152600454613a5591906001600160a01b0316613c2d565b613aaa6040518060400160405280601281526020017f746f6b656e416d6f756e7420746f204c6971000000000000000000000000000081525082600081518110613a9b57fe5b60200260200101518703613cfd565b600d8681548110612ae457fe5b6003546001600160a01b03828116911614613b2e576004546001600160a01b03828116911614613b2e576040805162461bcd60e51b815260206004820152601360248201527f534c504f4f4c3a2057726f6e6720546f6b656e00000000000000000000000000604482015290519081900360640190fd5b600054600160a01b900460ff1615610861576004546001600160a01b0382811691161415613b5f5761084e82612252565b61085c826131fd565b612b458383836000610be7565b600080613b828484614488565b60005491935091506001600160a01b0380841691161415613bd057600080547fffffffffffffffffffffff00ffffffffffffffffffffffffffffffffffffffff16600160a01b179055613c26565b6000546001600160a01b0382811691161415613c265760048054600160a01b7fffffffffffffffffffffff00ffffffffffffffffffffffffffffffffffffffff9182168117909255600080549091169091179055905b9250929050565b61086982826040516024018080602001836001600160a01b03168152602001828103825284818151815260200191508051906020019080838360005b83811015613c81578181015183820152602001613c69565b50505050905090810190601f168015613cae5780820380516001836020036101000a031916815260200191505b5060408051601f198184030181529190526020810180516001600160e01b03167f319af3330000000000000000000000000000000000000000000000000000000017905293506144b992505050565b61086982826040516024018080602001838152602001828103825284818151815260200191508051906020019080838360005b83811015613d48578181015183820152602001613d30565b50505050905090810190601f168015613d755780820380516001836020036101000a031916815260200191505b5060408051601f198184030181529190526020810180516001600160e01b03167f9710a9d00000000000000000000000000000000000000000000000000000000017905293506144b992505050565b6000613e0683836040518060400160405280601a81526020017f536166654d6174683a206469766973696f6e206279207a65726f0000000000008152506144da565b90505b92915050565b600082820183811015613e06576040805162461bcd60e51b815260206004820152601b60248201527f536166654d6174683a206164646974696f6e206f766572666c6f770000000000604482015290519081900360640190fd5b6121ba816040516024018080602001828103825283818151815260200191508051906020019080838360005b83811015613ead578181015183820152602001613e95565b50505050905090810190601f168015613eda5780820380516001836020036101000a031916815260200191505b5060408051601f198184030181529190526020810180516001600160e01b03167f41304fac0000000000000000000000000000000000000000000000000000000017905292506144b9915050565b600082613f3757506000613e09565b82820282848281613f4457fe5b0414613e065760405162461bcd60e51b81526004018080602001828103825260218152602001806148bd6021913960400191505060405180910390fd5b6000613e0683836040518060400160405280601e81526020017f536166654d6174683a207375627472616374696f6e206f766572666c6f77000081525061457c565b600254600090613fdb906001600160a01b03166145d6565b60055490935063ffffffff600160a01b909104811684039250600190831610905061086957600560009054906101000a90046001600160a01b03166001600160a01b031663a2e620456040518163ffffffff1660e01b8152600401600060405180830381600087803b15801561405057600080fd5b505af1158015614064573d6000803e3d6000fd5b5050600580547fffffffffffffffff00000000ffffffffffffffffffffffffffffffffffffffff16600160a01b63ffffffff8716021790819055600354604080517f3ddac9530000000000000000000000000000000000000000000000000000000081526001600160a01b039283166004820152670de0b6b3a764000060248201529051919092169350633ddac95392506044808301926020929190829003018186803b15801561411457600080fd5b505afa158015614128573d6000803e3d6000fd5b505050506040513d602081101561413e57600080fd5b5051600655600254604080517f0902f1ac000000000000000000000000000000000000000000000000000000008152905160009283926001600160a01b0390911691630902f1ac91600480820192606092909190829003018186803b1580156141a657600080fd5b505afa1580156141ba573d6000803e3d6000fd5b505050506040513d60608110156141d057600080fd5b5080516020909101516004546dffffffffffffffffffffffffffff928316945091169150600160a01b900460ff1661420957818161420c565b80825b600855600755600254604080517f18160ddd00000000000000000000000000000000000000000000000000000000815290516001600160a01b03909216916318160ddd91600480820192602092909190829003018186803b15801561427057600080fd5b505afa158015614284573d6000803e3d6000fd5b505050506040513d602081101561429a57600080fd5b50516009556006546000906142d1906142c8906142bf90670de0b6b3a7640000613dc4565b60075490613f28565b60085490613e0f565b905060006142fc6142f5670de0b6b3a7640000600654613dc490919063ffffffff16565b8390613dc4565b6009549091506143139061229283620f4240613f28565b600a5560095461432a9061229284620f4240613f28565b600b819055600654600a5460408051428152602081019390935282810191909152606082019290925290517fce49b138f2621300a7043a61f472ccfd643162bdf3efb11354e22d5273b77a719181900360800190a16143bd6040518060400160405280600d81526020017f3e3e3e4e65772075706461746500000000000000000000000000000000000000815250613e69565b6143fe6040518060400160405280600981526020017f6e65775072696365410000000000000000000000000000000000000000000000815250600654613cfd565b61443f6040518060400160405280600981526020017f6e6577526174696f410000000000000000000000000000000000000000000000815250600a54613cfd565b6144806040518060400160405280600981526020017f6e6577526174696f420000000000000000000000000000000000000000000000815250600b54613cfd565b505050505050565b600080826001600160a01b0316846001600160a01b0316106144ab5782846144ae565b83835b909590945092505050565b80516a636f6e736f6c652e6c6f67602083016000808483855afa5050505050565b600081836145665760405162461bcd60e51b81526004018080602001828103825283818151815260200191508051906020019080838360005b8381101561452b578181015183820152602001614513565b50505050905090810190601f1680156145585780820380516001836020036101000a031916815260200191505b509250505060405180910390fd5b50600083858161457257fe5b0495945050505050565b600081848411156145ce5760405162461bcd60e51b815260206004820181815283516024840152835190928392604490910191908501908083836000831561452b578181015183820152602001614513565b505050900390565b60008060006145e36147d7565b9050836001600160a01b0316635909c0d56040518163ffffffff1660e01b815260040160206040518083038186803b15801561461e57600080fd5b505afa158015614632573d6000803e3d6000fd5b505050506040513d602081101561464857600080fd5b5051604080517f5a3d549300000000000000000000000000000000000000000000000000000000815290519194506001600160a01b03861691635a3d549391600480820192602092909190829003018186803b1580156146a757600080fd5b505afa1580156146bb573d6000803e3d6000fd5b505050506040513d60208110156146d157600080fd5b5051604080517f0902f1ac0000000000000000000000000000000000000000000000000000000081529051919350600091829182916001600160a01b03891691630902f1ac916004808301926060929190829003018186803b15801561473657600080fd5b505afa15801561474a573d6000803e3d6000fd5b505050506040513d606081101561476057600080fd5b5080516020820151604090920151909450909250905063ffffffff808216908516146147cd5780840363ffffffff811661479a84866147e1565b516001600160e01b031602969096019563ffffffff81166147bb85856147e1565b516001600160e01b0316029590950194505b5050509193909250565b63ffffffff421690565b6147e96148aa565b6000826dffffffffffffffffffffffffffff161161484e576040805162461bcd60e51b815260206004820152601760248201527f4669786564506f696e743a204449565f42595f5a45524f000000000000000000604482015290519081900360640190fd5b6040805160208101909152806dffffffffffffffffffffffffffff84167bffffffffffffffffffffffffffff0000000000000000000000000000607087901b168161489557fe5b046001600160e01b0316815250905092915050565b6040805160208101909152600081529056fe536166654d6174683a206d756c7469706c69636174696f6e206f766572666c6f77a2646970667358221220372b334cc7bb137263bf20d0d97ad3da34465ef38f38590332a79d3dc471424c64736f6c63430007010033a264697066735822122031969ae53a5555325242fbe6e4fb9fe4a057b483b138f48d42b7be00c6815ee764736f6c63430007010033",
  "devdoc": {
    "kind": "dev",
    "methods": {},
    "version": 1
  },
  "userdoc": {
    "kind": "user",
    "methods": {},
    "version": 1
  },
  "storageLayout": {
    "storage": [
      {
        "astId": 11322,
        "contract": "src/SLFactory.sol:SLFactory",
        "label": "getPoolFromTokens",
        "offset": 0,
        "slot": "0",
        "type": "t_mapping(t_address,t_mapping(t_address,t_address))"
      },
      {
        "astId": 11326,
        "contract": "src/SLFactory.sol:SLFactory",
        "label": "getPoolFromPair",
        "offset": 0,
        "slot": "1",
        "type": "t_mapping(t_address,t_address)"
      },
      {
        "astId": 11329,
        "contract": "src/SLFactory.sol:SLFactory",
        "label": "allPools",
        "offset": 0,
        "slot": "2",
        "type": "t_array(t_address)dyn_storage"
      }
    ],
    "types": {
      "t_address": {
        "encoding": "inplace",
        "label": "address",
        "numberOfBytes": "20"
      },
      "t_array(t_address)dyn_storage": {
        "base": "t_address",
        "encoding": "dynamic_array",
        "label": "address[]",
        "numberOfBytes": "32"
      },
      "t_mapping(t_address,t_address)": {
        "encoding": "mapping",
        "key": "t_address",
        "label": "mapping(address => address)",
        "numberOfBytes": "32",
        "value": "t_address"
      },
      "t_mapping(t_address,t_mapping(t_address,t_address))": {
        "encoding": "mapping",
        "key": "t_address",
        "label": "mapping(address => mapping(address => address))",
        "numberOfBytes": "32",
        "value": "t_mapping(t_address,t_address)"
      }
    }
  },
  "gasEstimates": {
    "creation": {
      "codeDepositCost": "4146400",
      "executionCost": "infinite",
      "totalCost": "infinite"
    },
    "external": {
      "WETH()": "infinite",
      "allPools(uint256)": "1993",
      "allPoolsLength()": "1042",
      "createPool(address,address,address)": "infinite",
      "getPoolFromPair(address)": "1208",
      "getPoolFromTokens(address,address)": "1316",
      "uniFactory()": "infinite",
      "uniRouter()": "infinite"
    }
  }
}