{
  "abi": [
    {
      "inputs": [
        {
          "internalType": "address",
          "name": "factory",
          "type": "address"
        },
        {
          "internalType": "address",
          "name": "tokenA",
          "type": "address"
        },
        {
          "internalType": "address",
          "name": "tokenB",
          "type": "address"
        }
      ],
      "stateMutability": "nonpayable",
      "type": "constructor"
    },
    {
      "inputs": [],
      "name": "PERIOD",
      "outputs": [
        {
          "internalType": "uint256",
          "name": "",
          "type": "uint256"
        }
      ],
      "stateMutability": "view",
      "type": "function"
    },
    {
      "inputs": [],
      "name": "blockTimestampLast",
      "outputs": [
        {
          "internalType": "uint32",
          "name": "",
          "type": "uint32"
        }
      ],
      "stateMutability": "view",
      "type": "function"
    },
    {
      "inputs": [
        {
          "internalType": "address",
          "name": "token",
          "type": "address"
        },
        {
          "internalType": "uint256",
          "name": "amountIn",
          "type": "uint256"
        }
      ],
      "name": "consult",
      "outputs": [
        {
          "internalType": "uint256",
          "name": "amountOut",
          "type": "uint256"
        }
      ],
      "stateMutability": "view",
      "type": "function"
    },
    {
      "inputs": [],
      "name": "price0Average",
      "outputs": [
        {
          "internalType": "uint224",
          "name": "_x",
          "type": "uint224"
        }
      ],
      "stateMutability": "view",
      "type": "function"
    },
    {
      "inputs": [],
      "name": "price0CumulativeLast",
      "outputs": [
        {
          "internalType": "uint256",
          "name": "",
          "type": "uint256"
        }
      ],
      "stateMutability": "view",
      "type": "function"
    },
    {
      "inputs": [],
      "name": "price1Average",
      "outputs": [
        {
          "internalType": "uint224",
          "name": "_x",
          "type": "uint224"
        }
      ],
      "stateMutability": "view",
      "type": "function"
    },
    {
      "inputs": [],
      "name": "price1CumulativeLast",
      "outputs": [
        {
          "internalType": "uint256",
          "name": "",
          "type": "uint256"
        }
      ],
      "stateMutability": "view",
      "type": "function"
    },
    {
      "inputs": [],
      "name": "token0",
      "outputs": [
        {
          "internalType": "address",
          "name": "",
          "type": "address"
        }
      ],
      "stateMutability": "view",
      "type": "function"
    },
    {
      "inputs": [],
      "name": "token1",
      "outputs": [
        {
          "internalType": "address",
          "name": "",
          "type": "address"
        }
      ],
      "stateMutability": "view",
      "type": "function"
    },
    {
      "inputs": [],
      "name": "update",
      "outputs": [],
      "stateMutability": "nonpayable",
      "type": "function"
    }
  ],
  "address": "0x441A45160822c73BDBA5598f0395480b62efA841",
  "args": [
    "0x600500c06e23c2c19b0BA001e7088eceEeE69c55",
    "0x418d2FA3B7EF55f6B90BbDd4865AEfc58B8aD0a1",
    "0x2785119540Ae98B43f7A502e74A8bEc304ca4423"
  ],
  "solcInputHash": "0x1b05c1aef65bf6afba41c0e7c03cc208000de261928f4b450ea6fbedfa8ef507",
  "bytecode": "0x60e06040523480156200001157600080fd5b506040516200106d3803806200106d833981810160405260608110156200003757600080fd5b508051602080830151604090930151919291906000906200006790859085908590620004ed6200037d821b17901c565b9050806001600160a01b03166080816001600160a01b031660601b81525050806001600160a01b0316630dfe16816040518163ffffffff1660e01b815260040160206040518083038186803b158015620000c057600080fd5b505afa158015620000d5573d6000803e3d6000fd5b505050506040513d6020811015620000ec57600080fd5b505160601b6001600160601b03191660a0526040805163d21220a760e01b815290516001600160a01b0383169163d21220a7916004808301926020929190829003018186803b1580156200013f57600080fd5b505afa15801562000154573d6000803e3d6000fd5b505050506040513d60208110156200016b57600080fd5b505160601b6001600160601b03191660c05260408051635909c0d560e01b815290516001600160a01b03831691635909c0d5916004808301926020929190829003018186803b158015620001be57600080fd5b505afa158015620001d3573d6000803e3d6000fd5b505050506040513d6020811015620001ea57600080fd5b505160005560408051635a3d549360e01b815290516001600160a01b03831691635a3d5493916004808301926020929190829003018186803b1580156200023057600080fd5b505afa15801562000245573d6000803e3d6000fd5b505050506040513d60208110156200025c57600080fd5b505160015560408051630240bc6b60e21b8152905160009182916001600160a01b03851691630902f1ac916004808301926060929190829003018186803b158015620002a757600080fd5b505afa158015620002bc573d6000803e3d6000fd5b505050506040513d6060811015620002d357600080fd5b50805160208201516040909201516002805463ffffffff191663ffffffff909216919091179055925090506001600160701b038216158015906200031f57506001600160701b03811615155b62000371576040805162461bcd60e51b815260206004820152601560248201527f534c4f7261636c653a204e4f5f52455345525645530000000000000000000000604482015290519081900360640190fd5b50505050505062000534565b600080806200038d858562000451565b604080516001600160601b0319606094851b811660208084019190915293851b81166034830152825160288184030181526048830184528051908501207fff0000000000000000000000000000000000000000000000000000000000000060688401529a90941b9093166069840152607d8301989098527f96e8ac4277198ff8b6f785478aa9a39f403cb768dd02cbee326c3e7da348845f609d808401919091528851808403909101815260bd909201909752805196019590952095945050505050565b600080826001600160a01b0316846001600160a01b03161415620004a75760405162461bcd60e51b8152600401808060200182810382526025815260200180620010486025913960400191505060405180910390fd5b826001600160a01b0316846001600160a01b031610620004c9578284620004cc565b83835b90925090506001600160a01b0382166200052d576040805162461bcd60e51b815260206004820152601e60248201527f556e697377617056324c6962726172793a205a45524f5f414444524553530000604482015290519081900360640190fd5b9250929050565b60805160601c60a05160601c60c05160601c610ad4620005746000398061024552806104cb52508061019e52806101c452508061031c5250610ad46000f3fe608060405234801561001057600080fd5b50600436106100be5760003560e01c8063a2e6204511610076578063b4d1d7951161005b578063b4d1d7951461016b578063c5700a0214610173578063d21220a714610194576100be565b8063a2e6204514610159578063a6bb453914610163576100be565b80635909c0d5116100a75780635909c0d5146101255780635a3d54931461012d5780635e6aaf2c14610135576100be565b80630dfe1681146100c35780633ddac953146100e7575b600080fd5b6100cb61019c565b604080516001600160a01b039092168252519081900360200190f35b610113600480360360408110156100fd57600080fd5b506001600160a01b0381351690602001356101c0565b60408051918252519081900360200190f35b6101136102f7565b6101136102fd565b61013d610303565b604080516001600160e01b039092168252519081900360200190f35b610161610312565b005b61013d6104a9565b6101136104b8565b61017b6104bd565b6040805163ffffffff9092168252519081900360200190f35b6100cb6104c9565b7f000000000000000000000000000000000000000000000000000000000000000081565b60007f00000000000000000000000000000000000000000000000000000000000000006001600160a01b0316836001600160a01b031614156102435760408051602081019091526003546001600160e01b031681526102289061022390846105d8565b610656565b71ffffffffffffffffffffffffffffffffffff1690506102f1565b7f00000000000000000000000000000000000000000000000000000000000000006001600160a01b0316836001600160a01b0316146102b35760405162461bcd60e51b8152600401808060200182810382526022815260200180610a5a6022913960400191505060405180910390fd5b60408051602081019091526004546001600160e01b031681526102da9061022390846105d8565b71ffffffffffffffffffffffffffffffffffff1690505b92915050565b60005481565b60015481565b6004546001600160e01b031681565b60008060006103407f000000000000000000000000000000000000000000000000000000000000000061065d565b600254929550909350915063ffffffff908116820390600190821610156103ae576040805162461bcd60e51b815260206004820152601c60248201527f534c4f7261636c653a20504552494f445f4e4f545f454c415053454400000000604482015290519081900360640190fd5b60405180602001604052808263ffffffff166000548703816103cc57fe5b046001600160e01b039081169091529051600380547fffffffff0000000000000000000000000000000000000000000000000000000016919092161790556040805160208101909152600154819063ffffffff84169086038161042b57fe5b046001600160e01b039081169091529051600480547fffffffff00000000000000000000000000000000000000000000000000000000169190921617905550600092909255600155600280547fffffffffffffffffffffffffffffffffffffffffffffffffffffffff000000001663ffffffff909216919091179055565b6003546001600160e01b031681565b600181565b60025463ffffffff1681565b7f000000000000000000000000000000000000000000000000000000000000000081565b60008060006104fc858561085e565b604080517fffffffffffffffffffffffffffffffffffffffff000000000000000000000000606094851b811660208084019190915293851b81166034830152825160288184030181526048830184528051908501207fff0000000000000000000000000000000000000000000000000000000000000060688401529a90941b9093166069840152607d8301989098527f96e8ac4277198ff8b6f785478aa9a39f403cb768dd02cbee326c3e7da348845f609d808401919091528851808403909101815260bd909201909752805196019590952095945050505050565b6105e0610a0f565b600082158061060657505082516001600160e01b03168281029083828161060357fe5b04145b6106415760405162461bcd60e51b8152600401808060200182810382526023815260200180610a7c6023913960400191505060405180910390fd5b60408051602081019091529081529392505050565b5160701c90565b600080600061066a61093c565b9050836001600160a01b0316635909c0d56040518163ffffffff1660e01b815260040160206040518083038186803b1580156106a557600080fd5b505afa1580156106b9573d6000803e3d6000fd5b505050506040513d60208110156106cf57600080fd5b5051604080517f5a3d549300000000000000000000000000000000000000000000000000000000815290519194506001600160a01b03861691635a3d549391600480820192602092909190829003018186803b15801561072e57600080fd5b505afa158015610742573d6000803e3d6000fd5b505050506040513d602081101561075857600080fd5b5051604080517f0902f1ac0000000000000000000000000000000000000000000000000000000081529051919350600091829182916001600160a01b03891691630902f1ac916004808301926060929190829003018186803b1580156107bd57600080fd5b505afa1580156107d1573d6000803e3d6000fd5b505050506040513d60608110156107e757600080fd5b5080516020820151604090920151909450909250905063ffffffff808216908516146108545780840363ffffffff81166108218486610946565b516001600160e01b031602969096019563ffffffff81166108428585610946565b516001600160e01b0316029590950194505b5050509193909250565b600080826001600160a01b0316846001600160a01b031614156108b25760405162461bcd60e51b8152600401808060200182810382526025815260200180610a356025913960400191505060405180910390fd5b826001600160a01b0316846001600160a01b0316106108d25782846108d5565b83835b90925090506001600160a01b038216610935576040805162461bcd60e51b815260206004820152601e60248201527f556e697377617056324c6962726172793a205a45524f5f414444524553530000604482015290519081900360640190fd5b9250929050565b63ffffffff421690565b61094e610a22565b6000826dffffffffffffffffffffffffffff16116109b3576040805162461bcd60e51b815260206004820152601760248201527f4669786564506f696e743a204449565f42595f5a45524f000000000000000000604482015290519081900360640190fd5b6040805160208101909152806dffffffffffffffffffffffffffff84167bffffffffffffffffffffffffffff0000000000000000000000000000607087901b16816109fa57fe5b046001600160e01b0316815250905092915050565b6040518060200160405280600081525090565b6040805160208101909152600081529056fe556e697377617056324c6962726172793a204944454e544943414c5f4144445245535345534578616d706c654f7261636c6553696d706c653a20494e56414c49445f544f4b454e4669786564506f696e743a204d554c5449504c49434154494f4e5f4f564552464c4f57a26469706673582212205ec566b38619cb49a1e24333076755f07fad9ce8c3494268a85880542c5276a764736f6c63430007010033556e697377617056324c6962726172793a204944454e544943414c5f414444524553534553",
  "devdoc": {
    "kind": "dev",
    "methods": {},
    "version": 1
  },
  "userdoc": {
    "kind": "user",
    "methods": {},
    "version": 1
  },
  "storageLayout": {
    "storage": [
      {
        "astId": 14525,
        "contract": "src/lib/SLOracle.sol:SLOracle",
        "label": "price0CumulativeLast",
        "offset": 0,
        "slot": "0",
        "type": "t_uint256"
      },
      {
        "astId": 14527,
        "contract": "src/lib/SLOracle.sol:SLOracle",
        "label": "price1CumulativeLast",
        "offset": 0,
        "slot": "1",
        "type": "t_uint256"
      },
      {
        "astId": 14529,
        "contract": "src/lib/SLOracle.sol:SLOracle",
        "label": "blockTimestampLast",
        "offset": 0,
        "slot": "2",
        "type": "t_uint32"
      },
      {
        "astId": 14531,
        "contract": "src/lib/SLOracle.sol:SLOracle",
        "label": "price0Average",
        "offset": 0,
        "slot": "3",
        "type": "t_struct(uq112x112)14270_storage"
      },
      {
        "astId": 14533,
        "contract": "src/lib/SLOracle.sol:SLOracle",
        "label": "price1Average",
        "offset": 0,
        "slot": "4",
        "type": "t_struct(uq112x112)14270_storage"
      }
    ],
    "types": {
      "t_struct(uq112x112)14270_storage": {
        "encoding": "inplace",
        "label": "struct FixedPoint.uq112x112",
        "members": [
          {
            "astId": 14269,
            "contract": "src/lib/SLOracle.sol:SLOracle",
            "label": "_x",
            "offset": 0,
            "slot": "0",
            "type": "t_uint224"
          }
        ],
        "numberOfBytes": "32"
      },
      "t_uint224": {
        "encoding": "inplace",
        "label": "uint224",
        "numberOfBytes": "28"
      },
      "t_uint256": {
        "encoding": "inplace",
        "label": "uint256",
        "numberOfBytes": "32"
      },
      "t_uint32": {
        "encoding": "inplace",
        "label": "uint32",
        "numberOfBytes": "4"
      }
    }
  },
  "gasEstimates": {
    "creation": {
      "codeDepositCost": "554400",
      "executionCost": "infinite",
      "totalCost": "infinite"
    },
    "external": {
      "PERIOD()": "220",
      "blockTimestampLast()": "1057",
      "consult(address,uint256)": "infinite",
      "price0Average()": "1082",
      "price0CumulativeLast()": "1021",
      "price1Average()": "1104",
      "price1CumulativeLast()": "1043",
      "token0()": "infinite",
      "token1()": "infinite",
      "update()": "infinite"
    }
  }
}