{
  "abi": [
    {
      "inputs": [
        {
          "internalType": "address",
          "name": "_feth",
          "type": "address"
        },
        {
          "internalType": "address",
          "name": "_fdai",
          "type": "address"
        },
        {
          "internalType": "address",
          "name": "_fusdc",
          "type": "address"
        },
        {
          "internalType": "address",
          "name": "_fusdt",
          "type": "address"
        },
        {
          "internalType": "address",
          "name": "_fwbtc",
          "type": "address"
        }
      ],
      "stateMutability": "nonpayable",
      "type": "constructor"
    },
    {
      "inputs": [],
      "name": "fdai",
      "outputs": [
        {
          "internalType": "address",
          "name": "",
          "type": "address"
        }
      ],
      "stateMutability": "view",
      "type": "function"
    },
    {
      "inputs": [],
      "name": "feth",
      "outputs": [
        {
          "internalType": "address",
          "name": "",
          "type": "address"
        }
      ],
      "stateMutability": "view",
      "type": "function"
    },
    {
      "inputs": [],
      "name": "fusdc",
      "outputs": [
        {
          "internalType": "address",
          "name": "",
          "type": "address"
        }
      ],
      "stateMutability": "view",
      "type": "function"
    },
    {
      "inputs": [],
      "name": "fusdt",
      "outputs": [
        {
          "internalType": "address",
          "name": "",
          "type": "address"
        }
      ],
      "stateMutability": "view",
      "type": "function"
    },
    {
      "inputs": [],
      "name": "fwbtc",
      "outputs": [
        {
          "internalType": "address",
          "name": "",
          "type": "address"
        }
      ],
      "stateMutability": "view",
      "type": "function"
    },
    {
      "inputs": [
        {
          "internalType": "address",
          "name": "token",
          "type": "address"
        }
      ],
      "name": "getSome",
      "outputs": [],
      "stateMutability": "nonpayable",
      "type": "function"
    }
  ],
  "address": "0x06D34596A35252561bA8584b798B0848182FfFFe",
  "args": [
    "0x8736de00E86175e5Fe6E4B449F6d71bb45ba33eE",
    "0x29e521ECD8D9B237AfCa1B2018c81Ea65Dd2b903",
    "0xD463299Dc2dAf29cf393f0C7C1A3cefDA3a32203",
    "0xcFDE7CbD6d0C0671Be340893b07289AEea858d97",
    "0xa04A1c20341011D3C9dE4dED26eadc0f44c58feD"
  ],
  "solcInputHash": "0x7a9332b283bc0319399a4bd590e62e08e0e2eec624af85dcfe9da8968da1f052",
  "bytecode": "0x6080604052611c2060065534801561001657600080fd5b506040516105ec3803806105ec833981810160405260a081101561003957600080fd5b5080516020808301516040808501516060860151608090960151600080546001600160a01b03199081166001600160a01b03808a16919091178084558116835260078852858320671bc16d674ec800009055600180548316828916179081905581168352858320682086ac35105260000090819055600280548416838816179081905582168452868420819055600380548416838d1617908190558216845295909220949094556004805490941690821617909255939491939261011290670de0b6b3a76400009061012c90610138811b61027917901c565b6004546001600160a01b0316600090815260076020526040902055506102299350505050565b600061018083836040518060400160405280601a81526020017f536166654d6174683a206469766973696f6e206279207a65726f00000000000081525061018760201b60201c565b9392505050565b600081836102135760405162461bcd60e51b81526004018080602001828103825283818151815260200191508051906020019080838360005b838110156101d85781810151838201526020016101c0565b50505050905090810190601f1680156102055780820380516001836020036101000a031916815260200191505b509250505060405180910390fd5b50600083858161021f57fe5b0495945050505050565b6103b4806102386000396000f3fe608060405234801561001057600080fd5b50600436106100725760003560e01c80634cf1c52b116100505780634cf1c52b146100e55780634e1ea47c146100ed578063cc041b35146100f557610072565b806307e911ea1461007757806308024cc8146100ac57806333d11ea5146100dd575b600080fd5b6100aa6004803603602081101561008d57600080fd5b503573ffffffffffffffffffffffffffffffffffffffff166100fd565b005b6100b46101ed565b6040805173ffffffffffffffffffffffffffffffffffffffff9092168252519081900360200190f35b6100b4610209565b6100b4610225565b6100b4610241565b6100b461025d565b60065433600090815260056020908152604080832073ffffffffffffffffffffffffffffffffffffffff8616845290915290205401421161013d57600080fd5b73ffffffffffffffffffffffffffffffffffffffff811660008181526007602090815260408083205481517fa9059cbb0000000000000000000000000000000000000000000000000000000081523360048201526024810191909152905163a9059cbb93604480840194938390030190829087803b1580156101be57600080fd5b505af11580156101d2573d6000803e3d6000fd5b505050506040513d60208110156101e857600080fd5b505050565b60025473ffffffffffffffffffffffffffffffffffffffff1681565b60045473ffffffffffffffffffffffffffffffffffffffff1681565b60005473ffffffffffffffffffffffffffffffffffffffff1681565b60035473ffffffffffffffffffffffffffffffffffffffff1681565b60015473ffffffffffffffffffffffffffffffffffffffff1681565b60006102bb83836040518060400160405280601a81526020017f536166654d6174683a206469766973696f6e206279207a65726f0000000000008152506102c2565b9392505050565b60008183610368576040517f08c379a00000000000000000000000000000000000000000000000000000000081526004018080602001828103825283818151815260200191508051906020019080838360005b8381101561032d578181015183820152602001610315565b50505050905090810190601f16801561035a5780820380516001836020036101000a031916815260200191505b509250505060405180910390fd5b50600083858161037457fe5b049594505050505056fea26469706673582212207f0b21e9b524ead3a60d91f2780d23c246ad1ee2ae878d19f78d7bb341dad9d964736f6c63430007010033",
  "devdoc": {
    "kind": "dev",
    "methods": {},
    "version": 1
  },
  "userdoc": {
    "kind": "user",
    "methods": {},
    "version": 1
  },
  "storageLayout": {
    "storage": [
      {
        "astId": 11251,
        "contract": "src/DumbVault.sol:DumbVault",
        "label": "feth",
        "offset": 0,
        "slot": "0",
        "type": "t_address"
      },
      {
        "astId": 11253,
        "contract": "src/DumbVault.sol:DumbVault",
        "label": "fdai",
        "offset": 0,
        "slot": "1",
        "type": "t_address"
      },
      {
        "astId": 11255,
        "contract": "src/DumbVault.sol:DumbVault",
        "label": "fusdc",
        "offset": 0,
        "slot": "2",
        "type": "t_address"
      },
      {
        "astId": 11257,
        "contract": "src/DumbVault.sol:DumbVault",
        "label": "fusdt",
        "offset": 0,
        "slot": "3",
        "type": "t_address"
      },
      {
        "astId": 11259,
        "contract": "src/DumbVault.sol:DumbVault",
        "label": "fwbtc",
        "offset": 0,
        "slot": "4",
        "type": "t_address"
      },
      {
        "astId": 11265,
        "contract": "src/DumbVault.sol:DumbVault",
        "label": "lastGot",
        "offset": 0,
        "slot": "5",
        "type": "t_mapping(t_address,t_mapping(t_address,t_uint256))"
      },
      {
        "astId": 11268,
        "contract": "src/DumbVault.sol:DumbVault",
        "label": "PERIOD",
        "offset": 0,
        "slot": "6",
        "type": "t_uint256"
      },
      {
        "astId": 11272,
        "contract": "src/DumbVault.sol:DumbVault",
        "label": "amounts",
        "offset": 0,
        "slot": "7",
        "type": "t_mapping(t_address,t_uint256)"
      }
    ],
    "types": {
      "t_address": {
        "encoding": "inplace",
        "label": "address",
        "numberOfBytes": "20"
      },
      "t_mapping(t_address,t_mapping(t_address,t_uint256))": {
        "encoding": "mapping",
        "key": "t_address",
        "label": "mapping(address => mapping(address => uint256))",
        "numberOfBytes": "32",
        "value": "t_mapping(t_address,t_uint256)"
      },
      "t_mapping(t_address,t_uint256)": {
        "encoding": "mapping",
        "key": "t_address",
        "label": "mapping(address => uint256)",
        "numberOfBytes": "32",
        "value": "t_uint256"
      },
      "t_uint256": {
        "encoding": "inplace",
        "label": "uint256",
        "numberOfBytes": "32"
      }
    }
  },
  "gasEstimates": {
    "creation": {
      "codeDepositCost": "189600",
      "executionCost": "infinite",
      "totalCost": "infinite"
    },
    "external": {
      "fdai()": "1057",
      "feth()": "1013",
      "fusdc()": "1036",
      "fusdt()": "1035",
      "fwbtc()": "1058",
      "getSome(address)": "infinite"
    }
  }
}